:020000040800F2
:100000008050002029030008713C000825350008B5
:100010006D3C0008E50600083D47000800000000B0
:10002000000000000000000000000000690200085D
:10003000BB08000800000000C5020008013E0008DF
:100040004303000843030008430300084303000878
:100050004303000843030008430300084303000868
:100060004303000843030008C708000843030008CF
:100070007D0700084303000843030008430300080A
:100080004303000843030008430300084303000838
:10009000E90600084303000843030008D1080008EC
:1000A0004303000843030008430300084303000818
:1000B0004303000843030008430300084303000808
:1000C00043030008430300084303000843030008F8
:1000D00043030008430300084303000809460008DF
:1000E00043030008430300084303000843030008D8
:1000F00043030008430300084303000843030008C8
:1001000043030008430300084303000843030008B7
:1001100043030008430300084303000843030008A7
:10012000430300088D0700089D070008AD0700087D
:100130004303000843030008430300084303000887
:10014000F9060008430300084303000843030008BE
:1001500043030008BD070008CD0700082D4700082D
:100160004303000843030008430300084303000857
:100170004303000843030008430300080000000095
:10018000430300084303000800F002F800F05CF8A5
:100190000AA090E8000C82448344AAF10107DA45E2
:1001A00001D100F051F8AFF2090EBAE80F0013F0D8
:1001B000010F18BFFB1A43F0010318474C58000009
:1001C0006C5800000A444FF0000C10F8013B13F08B
:1001D000070408BF10F8014B1D1108BF10F8015BA0
:1001E000641E05D010F8016B641E01F8016BF9D193
:1001F00013F0080F1EBF10F8014BAD1C0C1B09D1EA
:100200006D1E58BF01F801CBFAD505E014F8016B5B
:1002100001F8016B6D1EF9D59142D6D370470000ED
:100220000023002400250026103A28BF78C1FBD8FF
:10023000520728BF30C148BF0B6070471FB505F09B
:1002400093FB1FBD10B510BD00F061F91146FFF71B
:10025000F5FF04F009FD00F07FF903B4FFF7F2FFAA
:1002600003BC00F087F900002C4B19680868B0E85F
:10027000F04F80F30988BFF36F8F4FF0000080F3D9
:10028000118870470000000008480068006880F38B
:1002900008884FF0000080F3148862B661B6BFF39F
:1002A0004F8FBFF36F8F00DF00BF00BF08ED00E08E
:1002B000DFF80C00016841F470010160704700BF75
:1002C00088ED00E0EFF30980BFF36F8F134B1A68DE
:1002D0001EF0100F08BF20ED108A20E9F04F1060CB
:1002E00009B44FF0500080F31188BFF34F8FBFF374
:1002F0006F8F05F02DF94FF0000080F3118809BCD5
:1003000019680868B0E8F04F1EF0100F08BFB0EC95
:10031000108A80F30988BFF36F8F7047C8020020EE
:10032000EFF30580704700000948804709480047FF
:10033000FEE7FEE7FEE7FEE7FEE7FEE7FEE7FEE795
:10034000FEE7FEE704480549054A064B70470000F2
:10035000C93E000889010008804A00208050002022
:10036000804C0020804C002053EA020C00F0698091
:100370002DE9F04B4FF00006002B1FBFB3FA83F5B9
:1003800003FA05F424FA05F65E4012BF1643B2FAEA
:1003900082F502FA05F4C5F120051EBF22FA05FC1C
:1003A00044EA0C04203556EA044C4FEA144418BFC2
:1003B000641C4FF000084FF00009904271EB030CF1
:1003C00039D3002919BFB1FA81F701FA07F6B0FA5B
:1003D00080F700FA07F6C7F120071EBF20FA07FCD6
:1003E00046EA0C062037B6FBF4FCA7EB0507103FE6
:1003F00007F01F0BCBF120060CFA0BFB2CFA06F6CC
:1004000044BFB3460026202FA4BF5E464FF0000B2A
:100410005BEA060C08BF4FF0010B19EB0B09ABFBB5
:10042000027C48EB0608C01B06FB02CC0BFB03CC8E
:1004300071EB0C01C1E70B46024641464846BDE858
:10044000F08B13B54FF000004FF00001AFF30080C8
:10045000BDE81C40704710B5203AC0F00B80B1E8F1
:100460001850203AA0E81850B1E81850A0E81850E9
:10047000BFF4F5AF5FEA027C24BFB1E81850A0E8F2
:10048000185044BF18C918C0BDE810405FEA827C0C
:1004900024BF51F8043B40F8043B08BF7047D20723
:1004A00028BF31F8023B48BF11F8012B28BF20F8C4
:1004B000023B48BF00F8012B70474FF0000200B527
:1004C000134694469646203922BFA0E80C50A0E877
:1004D0000C50B1F12001BFF4F7AF090728BFA0E825
:1004E0000C5048BF0CC05DF804EB890028BF40F8F1
:1004F000042B08BF704748BF20F8022B11F0804F33
:1005000018BF00F8012B7047704770477047754659
:1005100000F02CF8AE4605006946534620F007006F
:10052000854618B020B5FFF70DFFBDE820404FF01D
:1005300000064FF000074FF000084FF0000B21F0CD
:100540000701AC46ACE8C009ACE8C009ACE8C0099A
:10055000ACE8C0098D46704710B50446AFF3008083
:100560002046BDE81040FFF778BE00000048704705
:10057000204A002001491820ABBEFEE726000200F9
:100580007047000055494A6822F440324A604A6880
:1005900043681A434A600268526822F48072036812
:1005A0005A6002685368026943EA022203685A608B
:1005B0000268526822F0407203685A60026852680A
:1005C00083681A4303685A600268926822F40062E2
:1005D00003689A6002689268C3681A4303689A6065
:1005E0003F4B826A9A4218D00268926822F0706289
:1005F00003689A6002689268836A1A4303689A6083
:100600000268926822F0405203689A600268926819
:10061000C36A1A4303689A600BE00268926822F08A
:10062000706203689A600268926822F04052036820
:100630009A600268926822F0020203689A60026877
:100640009368027E43EA420203689A602022125CA9
:10065000A2B10268526842F4006203685A600268FC
:10066000526822F4604203685A6002685368426A22
:10067000521E43EA423203685A6005E0026852683B
:1006800022F4006203685A600268D26A22F470029F
:100690000368DA620268D36A828B521E43EA02520E
:1006A0000368DA620268926822F4007203689A6052
:1006B0000268936890F8302043EA422203689A6007
:1006C0000268926822F4806203689A600268936804
:1006D000426943EA822203689A607047002301401E
:1006E0000100000F00BFFEE710B5024800F058FC03
:1006F00010BD00001406002010B5024800F050FCA8
:1007000010BD00003C060020F8B504460D46164614
:100710001F4611480068114908600F4880688860CA
:100720000D48C068C8600C4800690861200A087656
:1007300008464476290A8176C576310A01774677DC
:10074000390A8177C7776B4600F1180201460448E1
:1007500000F02BFAF8BD00000C000020900C0020E7
:100760001406002004F0ECF800BF034804F032F84F
:10077000012004F0A9FAF8E7340C002010B5024873
:1007800000F078FF10BD0000D409002010B5024829
:1007900000F070FF10BD0000340A002010B50248C0
:1007A00000F068FF10BD00001007002010B50248DF
:1007B00000F060FF10BD00007007002010B5024877
:1007C00000F058FF10BD0000940A002010B5024848
:1007D00000F050FF10BD00007409002001460878A9
:1007E00010381823B0FBF3F20848805CC865032A70
:1007F00005D908686FF30900001D886503E00868E3
:100800006FF309008865886D70470000C8590008BB
:10081000014600208A6A8B69CBB932B1012A0DD01A
:10082000022A03D0032A10D10EE000BFCB6A03F0E6
:100830008073B3F1807F00D1012007E0CB6AB3F170
:10084000C07F00D1012001E000E000BF34E08B69EF
:10085000B3F5005F1AD132B1012A07D0022A03D0C2
:10086000032A11D10AE000BF01200EE0CB6A03F099
:100870008073B3F1807F00D1012006E0CB6AB3F131
:10088000C07F00D1012000E000BF15E032B1012A95
:1008900005D0022A04D0032A0CD103E000BF00BF18
:1008A000012008E0CB6A03F08073B3F1807F00D1B0
:1008B000012000E000BF00BF7047704700BF01206B
:1008C00004F002FAFBE710B5102001F06BF810BD40
:1008D00010B5202001F066F810BD72B600BFFEE72B
:1008E00038B502460020009000BF92F83C00012875
:1008F00001D1022038BD012082F83C0000BF086809
:10090000092816D91068C0680C780A3C04EB440525
:100910000724AC40A0431468E0600C780A3C04EB68
:1009200044048868A0401468E46820431468E060C8
:1009300013E0106800690C7804EB44050724AC4010
:10094000A043146820610C7804EB44048868A0403C
:10095000146824692043146820614868072817D266
:100960001068406B0C79641E04EB84051F24AC40B6
:10097000A04314686063088880B20C79641E04EB9D
:100980008404A0401468646B20431468606331E001
:1009900048680D2817D21068006B0C79E41F04EB2F
:1009A00084051F24AC40A04314682063088880B2EB
:1009B0000C79E41F04EB8404A0401468246B2043EA
:1009C0001468206316E01068C06A0C790D3C04EBD3
:1009D00084051F24AC40A0431468E062088880B2FC
:1009E0000C790D3C04EB8404A0401468E46A2043B5
:1009F0001468E062194B1A4C1068A04206D10868CE
:100A0000122803D1586840F480005860144C1068D4
:100A1000A0421CD10868102802D00868112816D1FD
:100A2000586840F400005860086810280FD10D483D
:100A300000680D4CB0FBF4F000EB8000400000902B
:100A400002E00098401E009000980028F9D100BFF5
:100A5000002082F83C0000BF00BF4BE700230140AC
:100A600000200140FC01002040420F0070B5044608
:100A700000250CB9012070BD1549A06A884200D03C
:100A800000BF206C30B9204600F024F800206064DC
:100A900084F83C00206C00F0100088B9206C20F431
:100AA000885040F0020020642046FFF76BFD0020D4
:100AB0006064206C20F0020040F00100206400E03F
:100AC000012500BF002084F83C0000BF2846D2E783
:100AD0000100000F10B586B00446142101A8FFF7ED
:100AE000ECFC2349206888420FD100BF0020009011
:100AF0002048006840F480701E490860084600687D
:100B000000F48070009000BF2FE01B4920688842ED
:100B10002BD100BF002000901648006840F4806090
:100B2000144908600846006800F48060009000BF27
:100B300000BF00BF002000900E481438006840F04D
:100B400020000C49143908600846006800F02000B5
:100B5000009000BF00BF0815019003200290002004
:100B6000039001A9054800F02BFF06B010BD00005E
:100B7000002001404438024000220140001402409D
:100B800010B5024692F82030012B01D0022B06D17D
:100B900010684069084314686061002010BD506A05
:100BA00040F4802050620120F8E7F0B504460D467D
:100BB0001E4694F8207020688368A86800B900E099
:100BC00000BF012F01D0022F7CD103F0806030B92B
:100BD00003F0006018B903F08050002873D0C3F30D
:100BE0000161022905D9606A40F4000060620120B9
:100BF000F0BD012088403060A86860B9B5F800C039
:100C0000E86840EA4C5C206800F5C07000EB011019
:100C1000C0F800C00FE0D5E901C040EACC00D5F82B
:100C20000CC040EA0C00D4F800C00CF5C07C0CEB02
:100C3000011CCCF80000D5F810C0206800F5C07089
:100C400000EB0110C0F804C0287D01280ED12068F7
:100C500000F5C07000EB0110406840F4807C206813
:100C600000F5C07000EB0110C0F804C0D079000698
:100C700092F806C040EA0C4092F805C040EA0C2CFD
:100C800010794CEA000C206800F5C07000EB0110F0
:100C9000C0F80CC0D078000692F802C040EA0C40C0
:100CA00092F801C040EA0C2092F800C040EA0C0023
:100CB000D4F800C00CF5C07C0CEB011CCCF808008B
:100CC000206801E016E00FE000F5C07000EB0110B5
:100CD000006840F0010C206800F5C07000EB0110C6
:100CE000C0F800C0002083E7606A40F40010606232
:100CF00001207DE7606A40F480206062012077E790
:100D0000F0B504460A46216894F82050012D01D020
:100D1000022D7ED1424901F50071086840F00100C2
:100D20000860086820F47C5008600868566A40EA49
:100D300006200860107D00F01F06012000FA06F36F
:100D4000C8699843C861A1F50071D069C8B9D1F8E4
:100D50000C029843C1F80C02908880B2968940EA50
:100D6000064601F51070576940F83760108880B268
:100D7000168940EA064601F51070576900EBC70076
:100D80004660D069012819D1D1F80C021843C1F886
:100D90000C02908880B2168840EA064601F5107071
:100DA000576940F83760908980B2168940EA064654
:100DB00001F51070576900EBC7004660906928B9CB
:100DC000D1F804029843C1F8040204E0D1F8040207
:100DD0001843C1F80402106928B9D1F814029843E5
:100DE000C1F8140204E0D1F814021843C1F8140247
:100DF000106A012804D1D1F81C021843C1F81C0262
:100E0000D1F8000220F00100C1F800020020F0BD7E
:100E1000FFE7606A40F4802060620120F7E700008D
:100E200000640040704770B5044694F82050012DCE
:100E300001D0022D7DD151B92068C06800F00300B7
:100E400080B9606A40F400106062012070BD2068C3
:100E5000006900F0030028B9606A40F40010606285
:100E60000120F3E7206800F5D87000EB011000685E
:100E700000F004009060906840B9206800F5D870D8
:100E800000EB01100068400D106007E0206800F5DD
:100E9000D87000EB01100068C0085060206800F5B1
:100EA000D87000EB0110006800F00200D0602068EC
:100EB00000F5D87000EB0110406800F00F001061E1
:100EC000206800F5D87000EB0110406800F47F4006
:100ED000000A9061206800F5D87000EB01104068AE
:100EE000000C5061206800F5D87000EB011080689C
:100EF0001870206800F5D87000EB0110806800F4CD
:100F00007F40000A5870206800F5D87000EB01108F
:100F1000806800F47F00000C9870206800F5D8709D
:100F200000EB01108068000ED870206800F5D870C2
:100F300000E02FE000EB0110C0681871206800F598
:100F4000D87000EB0110C06800F47F40000A5871AF
:100F5000206800F5D87000EB0110C06800F47F0035
:100F6000000C9871206800F5D87000EB0110C06883
:100F7000000ED87131B92068C06840F020002668A2
:100F8000F06005E02068006940F0200026683061CC
:100F900000205BE7606A40F480206062012055E732
:100FA0002DE9F05F04460025206846692068D0F8E6
:100FB0000490206887682068D0F80CA02068D0F8DA
:100FC00010B02068D0F8188006F00100002855D035
:100FD00007F00100C0B101202168886007F002001D
:100FE00018B1204600F0D5FA0EE007F0040010B169
:100FF00045F4006508E007F0080010B145F480559D
:1010000002E0204600F0C4FA07F48070C8B14FF443
:1010100080702168886007F4007018B1204600F0E5
:10102000BAFA0EE007F4806010B145F4005508E00C
:1010300007F4006010B145F4804502E0204600F05E
:10104000A9FA07F48030C8B14FF480302168886075
:1010500007F4003018B1204600F09FFA0EE007F4C4
:10106000802010B145F4004508E007F4002010B1DD
:1010700045F4803502E0204600F08EFA06F00800C4
:1010800038B10AF0100020B145F400751020216835
:10109000C86006F0040040B10AF0080028B108203A
:1010A0002168C860204600F00DFA06F0020038B151
:1010B0002068C06800F0030010B1204600F004FA78
:1010C00006F0400038B10BF0100020B145F4806507
:1010D00010202168086106F0200040B10BF00800E4
:1010E00028B1082021680861204600F01FFA06F0A8
:1010F000100038B12068006900F0030010B12046EC
:1011000000F015FA06F4003040B109F0100028B1E3
:10111000102021684860204600F00AFA06F480306A
:1011200040B109F0080028B1082021684860204635
:1011300000F034FA06F4004088B309F0040078B3F4
:1011400006F4807020B108F0010008B145F00105F7
:1011500006F4007020B108F0020008B145F0020565
:1011600006F4806020B108F0040008B145F00405E1
:1011700006F40060A0B108F0700088B108F07000BB
:10118000402817D006DC10280BD020280CD030289F
:1011900019D10CE0502810D0602814D110E01DE0C7
:1011A00019E045F008050FE045F010050CE045F0AA
:1011B000200509E045F0400506E045F0800503E024
:1011C00045F4807500E000BF00BF2068806920F012
:1011D0007000216888610420216848602DB1606A30
:1011E000284360622046FFF71DFEBDE8F09F70B502
:1011F00004460CB9012070BD94F8200010B92046B7
:1012000000F0B0F82068006840F001002168086034
:1012100000F0D6FC05460DE000F0D2FC401B0A2889
:1012200008D9606A40F400306062052084F820002C
:101230000120E0E72068406800F001000028EBD0C2
:101240002068006820F002002168086000F0B8FC07
:1012500005460DE000F0B4FC401B0A2808D9606A7E
:1012600040F400306062052084F820000120C2E7CD
:101270002068406800F002000028EBD1207E0128A1
:1012800006D12068006840F080002168086005E011
:101290002068006820F0800021680860607E0128D6
:1012A00006D12068006840F040002168086005E031
:1012B0002068006820F0400021680860A07E0128B6
:1012C00006D12068006840F020002168086005E031
:1012D0002068006820F0200021680860E07E012876
:1012E00006D12068006820F010002168086005E041
:1012F0002068006840F0100021680860207F012805
:1013000006D12068006840F008002168086005E008
:101310002068006820F0080021680860607F0128CC
:1013200006D12068006840F004002168086005E0EC
:101330002068006820F0040021680860D4E90201F8
:10134000084321690843616908436168491E0843ED
:101350002168C86100206062012084F8200000201C
:1013600049E7000010B586B00446142101A8FFF734
:10137000A4F84E492068884241D14D480068401C7D
:101380004B4908600846006801280FD100BF0020C3
:1013900000904848006840F00070464908600846E0
:1013A000006800F00070009000BF00BF00BF002088
:1013B000009040481038006840F008003D4910395E
:1013C00008600846006800F00800009000BF00BFF9
:1013D000032001900220029000200390032004903B
:1013E0000920059001A9344800F0EAFA00220521FD
:1013F000142000F0C1FD142000F0AEFD54E02F4990
:101400002068884250D100BF002000902948006821
:1014100040F08060274908600846006800F080605E
:10142000009000BF00BF22480068401C20490860AF
:101430000846006801280FD100BF002000901D4819
:10144000006840F000701B4908600846006800F022
:101450000070009000BF00BF00BF00200090154842
:101460001038006840F00200124910390860084640
:10147000006800F00200009000BF00BF60200190F3
:101480000220029000200390032004900920059080
:1014900001A90B4800F094FA00220621402000F038
:1014A0006BFD402000F058FD06B010BD0064004008
:1014B0008C01002040380240000C024000680040CF
:1014C000000402407047000010B58AB0044608AB23
:1014D00001AA00212046FFF7A6FC0198A0F20120F6
:1014E00007281BD2DFE800F00405060708090A00F8
:1014F00000BF00BF00BF00BF00BF00BF0198401E7B
:101500000849087008460078C0EBC000064901EBA6
:10151000800201A9204603F083FB00E000BF00BF6A
:101520000AB010BDC40200200002002070477047BE
:10153000704770B5044694F82000012822D102209B
:1015400084F820002068006820F00100216808600D
:1015500000F036FB05460DE000F032FB401B0A2888
:1015600008D9606A40F400306062052084F82000E9
:10157000012070BD2068406800F001000028EBD118
:101580006062F6E7606A40F4002060620120F0E7E4
:10159000704770477047704770477047704770B525
:1015A0000446A56D00F00CFB064694F835000228B1
:1015B00008D08020606500BF002084F8340000BFA0
:1015C000012070BD2068006820F0160021680860C6
:1015D0002068406920F0800021684861206C08B9CB
:1015E000A06C28B12068006820F00800216808601D
:1015F0002068006820F001002168086010E000F019
:10160000DFFA801B05280BD920206065032084F8B1
:10161000350000BF002084F8340000BF0320D0E76D
:101620002068006800F001000028E8D194F85C1000
:101630003F208840A860012084F8350000BF0020CA
:1016400084F8340000BF00BFBBE7014691F83500C5
:10165000022803D08020486501207047052081F8CA
:1016600035000868006820F001000A68106000205A
:10167000F3E70000F8B50446002000908C480068AD
:101680004FF41651B0FBF1F7A56D2E6894F85C107D
:1016900008208840304098B12068006800F00400BD
:1016A00070B12068006820F004002168086094F898
:1016B0005C1008208840A860606D40F00100606503
:1016C00094F85C1001208840304068B1206840697F
:1016D00000F0800040B194F85C1001208840A860C0
:1016E000606D40F00200606594F85C100420884052
:1016F000304068B12068006800F0020040B194F802
:101700005C1004208840A860606D40F004006065B3
:1017100094F85C1010208840304078B3206800684E
:1017200000F0080050B394F85C1010208840A860C6
:101730002068006800F4802080B12068006800F410
:10174000002028B9206CC8B12046216C884715E0DC
:10175000A06C98B12046A16C88470FE02068006813
:1017600000F4807028B92068006820F00800216823
:101770000860206C10B12046216C884794F85C10FA
:10178000202088403040002865D02068006800F0A4
:10179000100000285FD094F85C1020208840A860DA
:1017A00094F83500052828D12068006820F016003C
:1017B000216808602068406920F080002168486145
:1017C000206C08B9A06C28B12068006820F00800DF
:1017D0002168086094F85C103F208840A8600120D0
:1017E00084F8350000BF002084F8340000BF206D6D
:1017F00010B12046216D8847F8BD2068006800F4CC
:10180000802080B12068006800F4002028B9606C56
:1018100010B12046616C88471DE0E06BD8B12046CE
:10182000E16B884717E02068006800F4807068B9B1
:101830002068006820F0100021680860012084F80A
:10184000350000BF002084F8340000BFE06B10B109
:101850002046E16B8847606D38B3606D00F0010091
:10186000F0B1052084F835002068006820F0010000
:101870002168086000BF0098401C0090B84200D961
:1018800005E02068006800F001000028F3D100BFE7
:10189000012084F8350000BF002084F8340000BF28
:1018A000E06C10B12046E16C884700BFA4E700005F
:1018B000FC0100202DE9F0410446002500F080F9EC
:1018C000074614B90120BDE8F081606A00B100BF8D
:1018D000022084F8350000BF002084F8340000BFE7
:1018E0002068006820F00100216808600AE000F02C
:1018F00067F9C01B052805D920206065032084F8FE
:101900003500E0E72068006800F001000028EED113
:101910002068056821480540D4E901010843E168D1
:1019200008432169084361690843A1690843E169E3
:101930000843216A08430543606A042803D1D4E9B7
:101940000B0108430543206805602068456925F0C0
:101950000705606A0543606A04280DD1A06A054343
:10196000E06A48B12046FEF753FF28B14020606589
:10197000012084F83500A6E7206845612046FEF77F
:101980002DFF064694F85C103F208840B060002090
:101990006065012084F83500002094E73F8010F056
:1019A0007047000010B5044604480068204020B18C
:1019B000024804602046FFF7F3FF10BD143C0140CD
:1019C000F8B502460B460025002400200021D6E091
:1019D000012606FA01F51E6806EA0504AC4274D138
:1019E0001E7906F00306012E04D01E7906F00306C8
:1019F000022E13D190684F000326BE40B0434F0023
:101A0000DE68BE4030439060506801268E40B0438F
:101A10001E79C6F300168E40304350601E7906F0E2
:101A20000306032E09D0D0684F000326BE40B04302
:101A30004F009E68BE403043D0601E7906F003061A
:101A4000022E13D1CF0802F1200656F827004E07C8
:101A5000F70E0F26BE40B0434F07FF0E1E69BE4073
:101A60003043CF0802F1200646F8270010684F00E7
:101A70000326BE40B0431E7906F003064F00BE4069
:101A8000304310605E6806F44036002E76D000BF0A
:101A9000002600963C4E366846F480463A4F3E603B
:101AA0003E46366806F48046009600BF00BF374EBB
:101AB0008F0856F827008E07370F0F26BE40B04319
:101AC000334EB24202D1002624E057E0314EB242FA
:101AD00001D101261EE0304EB24201D1022619E0AA
:101AE0002E4EB24201D1032614E02D4EB24201D156
:101AF00004260FE02B4EB24201D105260AE02A4E01
:101B0000B24201D1062605E0284EB24201D1072695
:101B100000E008268F073F0FBE4030431B4E8F0862
:101B200046F82700224E3068A0435E6806F480160F
:101B300006B120431E4E3060361D3068A0435E68FB
:101B400006F4001606B12043194E361D3060184EBB
:101B5000361F3068A0435E6806F4003606B12043A5
:101B6000134E361F3060361F3068A0435E6806F49F
:101B7000803606B120430E4E083E3060491C1029C5
:101B8000FFF426AFF8BD0000443802400838014099
:101B9000000002400004024000080240000C024025
:101BA000001002400014024000180240001C0240D5
:101BB000083C01400AB1816101E00B048361704778
:101BC0000148006870470000F001002070B504462D
:101BD0000CB9012070BD94F83D0028B9002084F8AC
:101BE0003C00204600F0DAF8242084F83D0020680C
:101BF000006820F00100216808602068006840F457
:101C00000040216808602068006820F400402168D6
:101C1000086000F0CBFA05465C496068884206D847
:101C20005B48854201D2012007E0002005E05948C9
:101C3000854201D2012000E00020012800D1C9E73F
:101C40005548B5FBF0F62068406820F03F0030436F
:101C5000216848604D496068884201D8701C07E0DF
:101C60004FF4967070434FF47A71B0FBF1F0401C62
:101C70002168096A21F03F0108432168086243494D
:101C80006068884214D8681E61684900B0FBF1F0B2
:101C9000401CC0F30B00042801D204203DE0681E64
:101CA00061684900B0FBF1F0401CC0F30B0034E068
:101CB000A06838B9681E616801EB4101B0FBF1F022
:101CC000401C0AE0681E616801EBC10202EB0111D1
:101CD000B0FBF1F0401C40F48040C0F30B0008B9A9
:101CE00001201AE0A06848B9681E616801EB410153
:101CF000B0FBF1F0401CC0F30B000CE0681E616803
:101D000001EBC10202EB0111B0FBF1F0401CC0F38A
:101D10000B0040F4804040F400402168C9694CF653
:101D2000FF72914308432168C861D4E90701084361
:101D30002168096821F0C001084321680860D4E9DE
:101D4000031008432168896848F2FF329143084331
:101D500021688860D4E9050108432168C96821F039
:101D6000FF0108432168C8602068006840F0010056
:101D70002168086000202064202084F83D000020B5
:101D8000206384F83E0000BF24E70000A086010025
:101D900080841E0000093D0040420F0010B586B04F
:101DA0000446142101A8FEF788FB2A4920688842CE
:101DB0004DD100BF002000902748006840F004008B
:101DC000254908600846006800F00400009000BF44
:101DD00000BF00BF002000900846006840F00100EE
:101DE00008600846006800F00100009000BF00BFD6
:101DF00048150190122002900120039003200490C6
:101E00000420059001A91548FFF7DAFD4FF4807012
:101E100001901220029001200390032004900420DE
:101E2000059001A90E48FFF7CBFD00BF00200090F0
:101E300009481030006840F400000749103108607C
:101E40000846006800F40000009000BF00BF06B024
:101E500010BD0000005C0040303802400008024025
:101E6000000002400348006803490978084401491A
:101E700008607047F0010020F801002010B50D48FF
:101E8000006840F400700B4908600846006840F4A0
:101E9000806008600846006840F480700860032095
:101EA00000F0A8F80F2000F007F800F02BF8002051
:101EB00010BD0000003C024070B504460E4800789A
:101EC0004FF47A71B1FBF0F00C490968B1FBF0F501
:101ED000284600F041FD08B1012070BD102C07D24A
:101EE00000222146501E00F047F80548046001E03A
:101EF0000120F2E70020F0E7F8010020FC010020BB
:101F0000F401002008B500BF0020009011480068CF
:101F100040F480400F4908600846006800F48040A3
:101F2000009000BF00BF00BF00200090081F0068A5
:101F300040F08050091F08600846006800F080509B
:101F4000009000BF00BF00220F21901E00F014F887
:101F500008BD00004438024001460846002809DB5D
:101F600000F01F0301229A4043099B0003F1E02384
:101F7000C3F8002100BF70472DE9F05F80460D4691
:101F80001646002702F0DCFB074639462A46334650
:101F900001F00700C0F1070ABAF1040F02D94FF0AF
:101FA000040A01E0C0F1070AD14600F1040ABAF1BF
:101FB000070F02D24FF0000A01E0A0F1030AD44655
:101FC0004FF0010A0AFA09FAAAF1010A0AEA020A1A
:101FD0000AFA0CFA4FF0010B0BFA0CFBABF1010BF8
:101FE0000BEA030B4AEA0B042146404602F0B0FB21
:101FF000BDE8F09F00BF00F00702064B19684FF6DE
:10200000FF031940044B0B4343EA0221014B1960C3
:1020100000BF70470CED00E00000FA0570B5044603
:102020000D460CB9012070BD5848006800F007004B
:10203000A84209D255490D700846006800F0070013
:10204000A84201D00120EEE7207800F0020002282B
:102050001DD1207800F00400042805D14C48006808
:1020600040F4E0504A490860207800F00800082851
:1020700005D14748006840F460404549086044483D
:10208000006820F0F000A16808434149086020780A
:1020900000F00100A8B36068012807D13C48083867
:1020A0000068C0F34040B8B90120BCE7606802286E
:1020B00002D06068032807D1354808380068C0F3AB
:1020C000406048B90120AEE7314808380068C0F3E5
:1020D000400008B90120A6E72D48006820F0030061
:1020E000616808432A490860FFF76AFD064609E06F
:1020F000FFF766FD801B41F28831884202D9032038
:1021000091E707E02248006800F00C006168B0EB3E
:10211000810FEDD11D48006800F00700A84209D9E1
:102120001A490D700846006800F00700A84201D067
:10213000012078E7207800F00400042807D1144833
:10214000006820F4E050E1680843114908602078F5
:1021500000F00800082808D10D48006820F460400D
:10216000216940EAC1000A49086000F03FF80849C7
:102170000968C1F30311074A515CC8400649086069
:1021800006480068FFF798FE00204CE7003C02403C
:1021900008380240D0590008FC010020F40100205A
:1021A0000148006870470000FC01002000B5FFF7FF
:1021B000F7FF04490968C1F38221034A515CC84012
:1021C00000BD000008380240E059000800B5FFF7E4
:1021D000E7FF04490968C1F34231034A515CC84032
:1021E00000BD000008380240E05900082DE9F04722
:1021F000002400250026A1462548006800F00C00B8
:1022000020B1042805D008283AD105E0DFF88490F1
:1022100039E0DFF8849036E01D48001F006800F0C8
:102220003F041B48001F006800F4800078B11A4882
:102230001749091F0968C1F38811A0FB0170014605
:10224000224600233846FEF78FF805460EE0114877
:102250000F49091F0968C1F38811A0FB01700146ED
:10226000224600233846FEF77FF805460848001F3F
:102270000068C0F30140401C4600B5FBF6F902E0DF
:10228000DFF8109000BF00BF4846BDE8F0870000AF
:10229000083802400024F400001BB700F8B50446DB
:1022A0000CB90120F8BD207800F00100002874D09E
:1022B000F948006800F00C0004280DD0F6480068CA
:1022C00000F00C00082813D1F348001F006800F448
:1022D0008000B0F5800F0BD1EF4808380068C0F3DC
:1022E0004040002859D06068002856D10120D9E725
:1022F00000BF6068B0F5803F08D1E7480838006843
:1023000040F48030E449083908601EE06068B0F5A8
:10231000A02F0DD1E0480838006840F48020DE4945
:10232000083908600846006840F4803008600CE016
:10233000D9480838006820F48030D7490839086047
:102340000846006820F48020086000BF606890B1F3
:10235000FFF736FC054606E0FFF732FC401B642819
:1023600001D903209EE7CC4808380068C0F34040FC
:102370000028F1D011E0FFF723FC054606E0FFF747
:102380001FFC401B642801D903208BE7C248083892
:102390000068C0F340400028F1D1207800F002002E
:1023A00002285FD1BC48006800F00C0058B1BA4860
:1023B000006800F00C0008281CD1B748001F006816
:1023C00000F48000B0B9B44808380068C0F3400099
:1023D00020B1E068012801D0012063E7AE48083849
:1023E000006820F0F800216940EAC100AA490839D4
:1023F000086037E0E06800B30120A8490860FFF7F3
:10240000DFFB054606E0FFF7DBFB401B022801D996
:10241000032047E7A04808380068C0F340000028C0
:10242000F1D09D480838006820F0F800216940EAA2
:10243000C10099490839086014E0002097490860F4
:10244000FFF7BEFB054606E0FFF7BAFB401B02287C
:1024500001D9032026E7904808380068C0F34000FF
:102460000028F1D1207800F0080008282CD16069FC
:10247000A8B101208A490860FFF7A2FB054606E0E3
:10248000FFF79EFB401B022801D903200AE7824880
:102490006C300068C0F340000028F1D014E0002048
:1024A0007F490860FFF78CFB054606E0FFF788FBD5
:1024B000401B022801D90320F4E677486C300068FD
:1024C000C0F340000028F1D1207800F00400042877
:1024D00070D1002770483830006800F0805090B903
:1024E00000BF002000906C483830006840F08050F9
:1024F0006949383108600846006800F08050009053
:1025000000BF00BF01276748006800F48070B0B9C1
:102510006448006840F4807062490860FFF750FB2F
:10252000054606E0FFF74CFB401B022801D90320BB
:10253000B8E65C48006800F480700028F2D000BF64
:10254000A068012808D154486830006840F00100B4
:102550005149683108601DE0A06805280DD14E483A
:102560006830006840F004004B4968310860084654
:10257000006840F0010008600CE0474868300068DF
:1025800020F001004449683108600846006820F0E6
:102590000400086000BFA068A8B1FFF711FB054662
:1025A00009E0FFF70DFB401B41F28831884202D958
:1025B000032077E626E0384868300068C0F3400022
:1025C0000028EED013E0FFF7FBFA054608E0FFF71E
:1025D000F7FA401B41F28831884201D9032061E6B5
:1025E0002D4868300068C0F340000028EFD1012F6B
:1025F00007D129483830006820F08050264938310A
:10260000086000BFA069002845D02348006800F09A
:102610000C0008285DD0A069022845D100201F4980
:102620000866FFF7CDFA054606E0FFF7C9FA401B3A
:10263000022801D9032035E6174808380068C0F39E
:1026400040600028F1D1D4E907010843616A40EAFB
:1026500081110122A06AC2EB500041EA00412C2006
:10266000005D41EA00600C49091F086001200B4928
:102670000866FFF7A5FA054606E0FFF7A1FA401B3A
:10268000022801D903200DE6034808380068C0F38A
:1026900040600028F1D049E008380240000047427D
:1026A000800E474200700040002021490866FFF775
:1026B00087FA054606E0FFF783FA401B022801D996
:1026C0000320EFE51B480068C0F340600028F2D10A
:1026D0002CE0A069012800D1E4E51648001D066839
:1026E000A069012820D006F48001E06981421BD155
:1026F00006F03F01206A814216D147F6C070304093
:10270000616AB0EB811F0FD106F440310122A06A4B
:10271000C2EB5000B1EB004F06D106F070612C20E7
:10272000005DB1EB006F01D00120BBE50020B9E5F1
:10273000000047420038024010B504460CB90120A1
:1027400010BD606A38B96068B0F5827F00D105E0DD
:102750000021E16102E00021216161610021A162AB
:1027600094F8510028B9002084F85000204600F069
:1027700047F8022084F851002068006820F04000EB
:1027800021680860A08800F48270218901F4044166
:102790000843A18901F400610843217C01F0020192
:1027A0000843217D01F001010843218B01F40071F0
:1027B0000843217F01F0380108432021095D01F021
:1027C00080010843218D01F400510843216808600D
:1027D0000421A06901EA104094F8241001F01001CE
:1027E0000843216848602068C06920F400602168BF
:1027F000C86100206065012084F8510000209FE737
:1028000010B586B00446142101A8FDF756FE4B49C9
:10281000206888427ED100BF0020009048480068B0
:1028200040F48050464908600846006800F4805033
:10283000009000BF00BF00BF002000904048143847
:10284000006840F002003E491439086008460068FC
:1028500000F00200009000BF00BF00BF0020009009
:102860000846006840F0010008600846006800F073
:102870000100009000BF00BF1820019002200290CC
:1028800000200390032004900520059001A92D4805
:10289000FFF796F88020019002200290002003901C
:1028A000032004900520059001A92748FFF788F828
:1028B0002648274908604FF0C0604860002124483E
:1028C0008160C1604FF480610161002141618161DB
:1028D000C1614FF44031016200214162FEF7EAFF1D
:1028E00008B1FDF7FAFF00BF1948E064846300BF38
:1028F00016481830174908604FF0C0604860402102
:10290000144881600021C1604FF4806101610021A1
:10291000416100E010E08161C1614FF4003101626A
:1029200000214162FEF7C6FF08B1FDF7D6FF00BFE8
:102930000848A064846300BF06B010BD00300140A9
:10294000443802400004024000000240406402405B
:10295000100700207007002070B504462546681E49
:10296000B0F1807F01D301200FE0681E4FF0E0211D
:1029700048610F214FF0FF3001F0EAFE00204FF0D8
:10298000E021886107200861002070BD10B5034672
:10299000002200BF93F83C00012801D1022010BDA5
:1029A000012083F83C0000BF22F0FF00CC6840EA21
:1029B000040222F440708C6840EA040222F4806031
:1029C0004C6840EA040222F400600C6840EA040209
:1029D00022F480500C6940EA040222F400504C6951
:1029E00040EA040222F48040CC6940EA04021868FC
:1029F000426400BF002083F83C0000BF00BFCEE768
:102A000030B502460B4600BF92F83C00012801D1C8
:102A1000022030BD012082F83C0000BF022082F875
:102A20003D00106844681068816824F070041868DC
:102A3000044310684460184D1068A8421BD0106809
:102A4000B0F1804F17D0154D1068A84213D0144D27
:102A50001068A8420FD0134D1068A8420BD0124D39
:102A60001068A84207D0114D1068A84203D0104D3D
:102A70001068A84205D121F0800158680143106810
:102A80008160012082F83D0000BF002082F83C00F8
:102A900000BF00BFBDE7000000000140000400408F
:102AA00000080040000C00400004014000400140CC
:102AB0000018004010B504460CB9012010BD94F870
:102AC0003D0028B9002084F83C00204600F026F89C
:102AD000022084F83D00211D206801F0FFF901204B
:102AE00084F8460000BF84F83E0001213F200155D4
:102AF000402001554120015500BF00BF012084F84E
:102B0000420043200155442001554520015500BF96
:102B1000012084F83D000020D0E7000008B51F4ADE
:102B2000016891420FD100BF002100911C49096842
:102B300041F001011A4A11601146096801F00101D2
:102B4000009100BF29E0174A0168914211D100BFEE
:102B5000002100911249091F096841F00801104A3B
:102B6000121F11601146096801F00801009100BFB1
:102B700013E00D4A016891420FD100BF002100917E
:102B80000749096841F40031054A11601146096896
:102B900001F40031009100BF00BF08BD00000140FA
:102BA00044380240000C0040004401402DE9F0414F
:102BB00004460D46002700BF94F83C00012802D1CE
:102BC0000220BDE8F081012084F83C0000BF022013
:102BD00084F83D002068866826F0770626F47F4654
:102BE000206886602868502833D00CDC202850D01C
:102BF00004DC00284BD0102851D149E0302849D0BE
:102C000040284CD139E060282DD0702807D0B0F58D
:102C1000805F03D0B0F5005F41D10DE041E0D5E920
:102C200002136A68206801F0C5F92068866846F0DA
:102C300077062068866034E0D5E902136A68206868
:102C400001F0B8F92068806840F48040216888600D
:102C500027E0EA686968206801F09CFA5021206842
:102C600001F0B3F91DE0EA686968206801F0A5FA8F
:102C70006021206801F0A9F913E0EA68696820681A
:102C800001F088FA4021206801F09FF909E000BFB7
:102C900000BF00BF2968206801F097F901E0012713
:102CA00000BF00BF012084F83D0000BF002084F871
:102CB0003C0000BF384684E710B586B004461421B6
:102CC00001A8FDF7FAFB2449206888421FD100BF04
:102CD000002000902148006840F010001F49086063
:102CE0000846006800F01000009000BF00BF4FF4DD
:102CF000D440019002200290012003900220049011
:102D00000120059001A91648FEF75AFE21E0154959
:102D1000206888421DD100BF002000900F48006845
:102D200040F020000D4908600846006800F02000CF
:102D3000009000BF00BF40200190022002900120BF
:102D40000390022004900320059001A90648FEF795
:102D500037FE06B010BD00000000014030380240D0
:102D60000010024000440140001402402DE9F041EF
:102D700004460D461646002700BF94F83C00012883
:102D800002D10220BDE8F081012084F83C0000BFA0
:102D900036B1042E1BD0082E31D00C2E5ED145E06A
:102DA0002946206801F01AF92068806940F008007F
:102DB000216888612068806920F0040021688861AA
:102DC00020688069296908432168886148E02946AC
:102DD000206801F03BF92068806940F400602168B8
:102DE00088612068806920F480602168886120689B
:102DF0008069296940EA01202168886130E029461C
:102E0000206801F061F92068C06940F0080021687D
:102E1000C8612068C06920F004002168C86120688A
:102E2000C069296908432168C86119E029462068FA
:102E300001F086F92068C06940F400602168C8612B
:102E40002068C06920F480602168C8612068C0697A
:102E5000296940EA01202168C86101E0012700BF1B
:102E600000BF00BF002084F83C0000BF384689E75F
:102E700010B504460CB9012010BD94F83D0028B9E6
:102E8000002084F83C00204600F025F8022084F859
:102E90003D00211D206801F021F8012084F8460042
:102EA00000BF84F83E0001213F200155402001551C
:102EB0004120015500BF00BF012084F8420043209B
:102EC0000155442001554520015500BF012084F8DB
:102ED0003D000020D0E77047704770472DE9F84F5C
:102EE0000446206805682068C668206847694FF076
:102EF0000009CA4605F00F09B9F1000F0AD105F023
:102F0000200038B106F0200020B1204601F0B9F9C8
:102F1000BDE8F88FB9F1000F7CD007F0010018B9B7
:102F200006F49070002875D005F0010030B106F469
:102F3000807018B1206C40F00100206405F004009E
:102F400030B107F0010018B1206C40F0020020649D
:102F500005F0020030B107F0010018B1206C40F01C
:102F60000400206405F0080048B106F0200010B904
:102F700007F0010018B1206C40F008002064206CBC
:102F8000002846D005F0200028B106F0200010B13E
:102F9000204601F076F920684069C0F3801A206C61
:102FA00000F0080010B9BAF1000F2DD0204601F052
:102FB00022F92068406900F04000402820D100BF7D
:102FC00000BF2168143151E8001F21F04000216842
:102FD000143141E80002002AF3D100BFA06B50B1C8
:102FE0007548A16B0865A06BFEF72FFB88B1A06B3D
:102FF000016D88470DE02046FFF76FFF09E009E00B
:103000002046FFF76AFF04E02046FFF766FF002036
:1030100020647DE7206B012876D105F010000028A0
:1030200072D006F010000028FAD000BF00200090F7
:1030300020680068009020684068009000BF00BFD2
:103040002068406900F0400040285ED1A06B006815
:1030500040681FFA80F8B8F1000F54D0A08D4045A9
:1030600051DDA4F82E80A06BC069B0F5807F43D0FD
:1030700000BF00BF21680C3151E8001F21F48070AF
:1030800021680C3141E80002002AF3D100BF00BFE3
:1030900000BF2168143151E8001F21F001002168B0
:1030A000143141E80002002AF3D100BF00BF00BF85
:1030B0002168143151E8001F21F0400021681431CB
:1030C00041E80002002AF3D100BF202084F83E002E
:1030D0000020206300BF00BF21680C3151E8001FB1
:1030E00021F0100021680C3141E80002002AF3D1E0
:1030F00000BFA06BFEF753FAA08DE28D801A81B25B
:103100002046FFF7E9FE03E740E0A08DE18D401A7D
:103110001FFA80F8E08DC0B3B8F1000F35D000BFC2
:1031200000BF21680C3151E8001F21F49070216824
:103130000C3141E80002002AF3D100BF00BF00BFFC
:103140002168143151E8001F21F001002168143179
:1031500041E80002002AF3D100BF202084F83E009D
:103160000020206300BF00BF21680C3151E8001F20
:1031700021F0100021680C3141E80002002AF3D14F
:1031800000BF41462046FFF7A7FEC1E605F08000DC
:1031900030B106F0800018B1204601F005FAB7E61C
:1031A00005F0400030B106F0400018B1204601F0B3
:1031B00058F8ADE600BFABE6E341000810B50446A1
:1031C0000CB9012010BDA06900B100E000BF94F867
:1031D0003D0028B9002084F83C00204600F028F883
:1031E000242084F83D002068C06820F40050216845
:1031F000C860204601F0C2F82068006920F49040C1
:10320000216808612068406920F02A00216848612F
:103210002068C06840F400502168C8600020206425
:10322000202084F83D0084F83E000020CAE700001A
:1032300010B586B00446142101A8FDF73EF9AA494D
:10324000206888426ED100BF00200090A748006827
:1032500040F01000A54908600846006800F0100022
:10326000009000BF00BF00BF002000909F481438AE
:10327000006840F002009D49143908600846006863
:1032800000F00200009000BF00BF00BF00200090CF
:103290000846006840F0010008600846006800F039
:1032A0000100009000BF00BF80200190022002902A
:1032B00001200390032004900720059001A98C4869
:1032C000FEF77EFB4FF40070019002200290012077
:1032D0000390032004900720059001A98548FEF77C
:1032E0006FFB8548854908604FF0006048604021C9
:1032F000824881600021C1604FF48061016100213A
:1033000041618161C1614FF48031016200214162FC
:10331000FEF7D0FA08B1FDF7E0FA00BF7748606326
:103320008463DEE07649206888425BD100BF0020DC
:1033300000906E48001F006840F480206B49091F10
:1033400008600846006800F48020009000BF00BFBD
:1033500000BF0020009065481438006840F0040069
:103360006249143908600846006800F004000090C3
:1033700000BF00BF4FF44060019002200290002087
:103380000390032004900720059001A95D48FEF7F3
:1033900017FB5D485D4908604FF000604860002100
:1033A0005A488160C1604FF4806101610021416130
:1033B0008161C1614FF44031016200214162FEF739
:1033C00079FA08B1FDF789FA00BF5048A063846319
:1033D00000BF002204212720FEF7CEFD2720FEF7A4
:1033E000BBFD7EE04A49206888427AD100BF0020B8
:1033F00000903E48006840F020003C4908600846C4
:10340000006800F02000009000BF00BF00BF002057
:10341000009036481438006840F0400033491439B1
:1034200008600846006800F04000009000BF00BF40
:103430004FF4844001900220029001200390032069
:1034400004900820059001A93248FEF7B9FA2A48ED
:103450009038314908608005486000212E4881601D
:10346000C1604FF480610161002141618161C161EE
:103470004FF40031016200214162FEF71BFA08B1EE
:10348000FDF72BFA00BF2448A063846300BF1A48ED
:103490001838224908604FF02060486040211F48DA
:1034A00081600021C1604FF48061016100214161B0
:1034B0008161C1614FF48031016200214162FEF7F8
:1034C000F9F908B1FDF709FA00BF14486063846395
:1034D00000BF002205214720FEF74EFD4720FEF7E2
:1034E0003BFD06B010BD0000001001404438024012
:1034F0000004024000000240B86402407409002049
:10350000004800400008024028600240D409002022
:103510000014014000180240340A0020940A0020E0
:103520007047704700BFFEE700BF012001F0CCFBF1
:10353000FBE700001FB5002000900190029003906F
:103540001548164908604FF4803048600021134840
:1035500081600161017680F82010C16210498162AA
:103560000021C1600121C161002180F830100121DA
:103570004161FDF77BFA08B1FDF7AFF9112000902A
:10358000012001900020029069460448FDF7A8F947
:1035900008B1FDF7A2F91FBD0020014084050020FD
:1035A0000100000F1FB500200090019002900390D1
:1035B0001548164908604FF48030486000211348D0
:1035C00081600161017680F82010C162104981623A
:1035D0000021C1600121C161002180F8301001216A
:1035E0004161FDF743FA08B1FDF777F90820009033
:1035F000012001900020029069460448FDF770F90F
:1036000008B1FDF76AF91FBD00220140CC0500207A
:103610000100000F10B50E480E49086003204860F5
:1036200000210C488160C1604FF4102101614FF40A
:10363000001141610021017641768176C1760177E2
:103640004177FDF7D4FD08B1FDF747F910BD000043
:10365000006400401406002010B50E480E490860B2
:103660000320486000210C488160C1604FF41021A4
:1036700001614FF4001141610021017641768176AC
:10368000C17601774177FDF7B2FD08B1FDF725F965
:1036900010BD0000006800403C06002008B500BFD7
:1036A000002000902648006840F48000244908600B
:1036B0000846006800F48000009000BF00BF00BF13
:1036C000002000900846006840F40010086008469A
:1036D000006800F40010009000BF00BF0022052128
:1036E0000C20FEF749FC0C20FEF736FC00220521D9
:1036F0003920FEF741FC3920FEF72EFC002205217F
:103700003A20FEF739FC3A20FEF726FC002205217C
:103710003B20FEF731FC3B20FEF71EFC002205217A
:103720004520FEF729FC4520FEF716FC0022052166
:103730004620FEF721FC4620FEF70EFC08BD0000E7
:103740003038024000B595B01C2212490EA8FCF793
:1037500082FE00210EA801F0C4FA0F4908601C2265
:103760000C491C3107A8FCF776FE002107A801F0E0
:10377000B8FA0A4908601C22064938316846FCF745
:103780006AFE0021684601F0ACFA0549086015B0F0
:1037900000BD000074590008000000200400002053
:1037A0000800002000B587B0142102A8FCF785FEB0
:1037B00000BF002001906148006840F002005F49AE
:1037C00008600846006800F00200019000BF00BFDA
:1037D00000BF002001900846006840F040000860EB
:1037E0000846006800F04000019000BF00BF00BF25
:1037F000002001900846006840F00100086008467B
:10380000006800F00100019000BF00BF00BF002071
:1038100001900846006840F008000860084600680B
:1038200000F00800019000BF00BF00BF0020019021
:103830000846006840F0040008600846006800F090
:103840000400019000BF00BF00BF002001900846A7
:10385000006840F0800008600846006800F08000C2
:10386000019000BF00BF00BF002001900846006823
:1038700040F0200008600846006800F02000019039
:1038800000BF00BF00BF002001900846006840F064
:10389000100008600846006800F01000019000BFAA
:1038A00000BF00224FF4E0512548FEF783F90122C2
:1038B00010212448FEF77EF9012211462248FEF726
:1038C00079F94FF4E05002900120039004900590A4
:1038D00002A91B48FEF774F8102002900120039003
:1038E00004900220059002A91648FEF769F83020DE
:1038F00002904FF4041003900120049002A9134891
:10390000FEF75EF8012002900390049002200590DB
:1039100002A90D48FEF754F8002205210A20FEF7FF
:103920002BFB0A20FEF718FB002205211720FEF7CB
:1039300023FB1720FEF710FB07B000BD3038024014
:10394000001C024000000240000402400008024047
:1039500010B50B480B4908600B4848600021094826
:103960008160C1604FF4804101610021416181614A
:10397000C1610162FEF72AF908B1FCF7AEFF10BD84
:10398000005C004064060020801A060010B50F4855
:103990000F4908604FF48270486000210C48816034
:1039A000C160022101610121416149028161382127
:1039B000C16100210162416281620A21C162FEF798
:1039C000BBFE08B1FCF789FF10BD000000300140CC
:1039D000B806002000B587B01C216846FCF76DFDD5
:1039E000154816490860002048600021134881608E
:1039F00041F28731C160002101618161FFF75AF80E
:103A000008B1FCF76AFF0D48FFF732FA08B1FCF77E
:103A100064FF60200090002001900290049000223A
:103A200069460648FFF7A2F908B1FCF756FF0348BC
:103A3000FFF742F907B000BD0044014060080020D4
:103A400000B595B0002011901290139014900F9033
:103A500010901C2108A8FCF730FD20216846FCF7D7
:103A60002CFD3A483A490860A720486000213848B0
:103A7000816044F61F61C160002101614161816183
:103A8000FFF718F808B1FCF728FF4FF480501190A9
:103A900011A92F48FFF78AF808B1FCF71EFF2C4840
:103AA000FFF7E6F908B1FCF718FF00200F9010901F
:103AB0000FA92748FEF7A4FF08B1FCF70EFF60200E
:103AC00008904FF47A70099000200A900B900C90A7
:103AD0000D900E90002208A91D48FFF747F908B184
:103AE000FCF7FBFE042208A91948FFF73FF908B1CB
:103AF000FCF7F3FE00200990082208A91448FFF7FC
:103B000035F908B1FCF7E9FE4FF47A7009900C2200
:103B100008A90F48FFF72AF908B1FCF7DEFE0020DC
:103B2000009001900290039004904FF40050059093
:103B30000020079069460648FEF728FF08B1FCF709
:103B4000CCFE0348FFF7B8F815B000BD00000140F7
:103B5000D007002000B587B00020039004900590A6
:103B600006900190029014481449086000204860B3
:103B7000002112488160491EC160002101618161FC
:103B8000FEF798FF08B1FCF7A8FE4FF480500390B1
:103B900003A90A48FFF70AF808B1FCF79EFE0020C7
:103BA0000190029001A90548FEF72AFF08B1FCF731
:103BB00094FE07B000BD0000000C00401808002073
:103BC00010B50B480B4908604FF4E1304860002104
:103BD00008488160C16001610C214161002181615F
:103BE000C161FFF7EBFA08B1FCF777FE10BD0000EA
:103BF00000100140A808002010B50B480B490860D0
:103C00000B484860002109488160C1604FF4806121
:103C100001610C21416100218161C161FFF7CEFA90
:103C200008B1FCF75AFE10BD00480040EC08002027
:103C3000A086010010B50B480B4908604FF4E13035
:103C40004860002108488160C16001610C21416128
:103C500000218161C161FFF7B1FA08B1FCF73DFEB7
:103C600010BD0000001401403009002000BFFEE735
:103C700000BFFEE7816A21F00042C2F1FF42D20F8D
:103C800012B1022246210A547047000070B5044662
:103C90000D4616460648E06425700648A064204696
:103CA000E16C884731462046A26C904770BD000009
:103CB000B93C0008F13C00080021C160016141618C
:103CC0009FED0A0A80ED060A9FED080A80ED070ABB
:103CD0009FED060A80ED080A9FED040A80ED090AAF
:103CE0009FED020A80ED0A0A704700000000000004
:103CF00070B504460D4605B970BD2046E16C884795
:103D000095ED000A84ED0E0A95ED010A84ED0F0A87
:103D100095ED020A84ED100A95ED030A84ED0B0A75
:103D200095ED040A84ED0C0A95ED050A84ED0D0A63
:103D30000020A4F844000021462001559FED080A08
:103D400084ED070A9FED060A84ED080A9FED040A38
:103D500084ED090A9FED020A84ED0A0A00BFCBE751
:103D60000000000010B5234B1B685B6943F0400363
:103D7000204C246863611F4B1B68DB6843F0100311
:103D80001C4C2468E3601C4B1B681B6823F0010378
:103D9000194C2468236007E0174B1B681B6823F04D
:103DA0000103154C24682360134B1B681B6803F048
:103DB0000103002BF0D1114B0F4C2468A3600E4B74
:103DC0001B68D8600C4B1B6819610B4B1B685A6051
:103DD000094B1B681B6843F48023074C246823604D
:103DE000054B1B681B6843F00103034C24682360E8
:103DF00010BD0000EC080020D40900200448004059
:103E000010B5FEF72FF801F0D1FC012801D001F028
:103E100051FC10BD00B593B0302107A8FCF74DFB55
:103E2000142102A8FCF749FB00BF002001902448A0
:103E3000006840F08050224908600846006800F0A1
:103E40008050019000BF00BF00BF002001901D48BE
:103E5000006840F480401B4908600846006800F490
:103E60008040019000BF00BF01200790000408902F
:103E700002200D9041050E9106210F91A82110916D
:103E8000022111910721129107A8FEF707FA08B144
:103E9000FCF723FD0F2002900220039000200490E5
:103EA0004FF4A05005904FF480500690052102A8D1
:103EB000FEF7B4F808B1FCF710FD13B000BD000028
:103EC00040380240007000400348006840F4700031
:103ED000014908607047000088ED00E010B50268F5
:103EE000294B98420ED0B0F1804F0BD0274B98420F
:103EF00008D0274B984205D0264B984202D0264B3B
:103F0000984203D122F070024B681A431E4B98422C
:103F100020D0B0F1804F1DD01C4B98421AD01C4BC2
:103F2000984217D01B4B984214D01B4B984211D08B
:103F30001A4B98420ED01A4B98420BD0194B98420C
:103F400008D0194B984205D0184B984202D0184B14
:103F5000984203D122F44072CB681A4322F08003C6
:103F60004C6943EA040202608B68C3620B68836297
:103F7000054B984202D0084B984201D10B6903636C
:103F80000123436110BD0000000001400004004017
:103F900000080040000C00400004014000400140C7
:103FA000004401400048014000180040001C00404F
:103FB0000020004030B50C46816821F47F4142EA80
:103FC000032525432943816030BD0A46816821F0DD
:103FD000700142F0070319438160704730B5056AEC
:103FE00025F001050562026A4368846924F07004C3
:103FF00024F003040D682C4322F002028D682A434A
:10400000104DA84200D103E00F4DA84206D100BFD9
:1040100022F00802CD682A4322F00402094DA8428A
:1040200002D0094DA84207D123F4807323F4007312
:104030004D692B438D692B43436084614D68456313
:10404000026230BD000001400004014030B5056A45
:1040500025F010050562026A4368846924F4E0448F
:1040600024F440740D6844EA052422F020028D688F
:1040700042EA0512124DA84200D103E0114DA842B8
:1040800007D100BF22F08002CD6842EA051222F07B
:1040900040020B4DA84202D00A4DA84209D123F498
:1040A000806323F400634D6943EA85038D6943EA25
:1040B0008503436084614D688563026230BD000002
:1040C000000001400004014030B5056A25F4807508
:1040D0000562026A4368C46924F0700424F0030492
:1040E0000D682C4322F400728D6842EA0522124DBD
:1040F000A84200D103E0114DA84207D100BF22F42D
:104100000062CD6842EA052222F480620A4DA8428C
:1041100002D00A4DA84209D123F4805323F400535E
:104120004D6943EA05138D6943EA05134360C46191
:104130004D68C563026230BD0000014000040140CB
:1041400030B5056A25F480550562036A4468C26982
:1041500022F4E04222F440720D6842EA052223F480
:1041600000538D6843EA0533084DA84202D0084D3C
:10417000A84204D124F480444D6944EA8514446083
:10418000C2614D680564036230BD0000000001405B
:104190000004014030B50B461446026A056A25F05A
:1041A00001050562816921F0F00141EA041122F064
:1041B0000A021A438161026230BD30B50B461446D3
:1041C000056A25F0100505628169026A21F47041D3
:1041D00041EA043122F0A00242EA03128161026244
:1041E00030BD70B50546AC6B0020E085E08420460C
:1041F000FEF773FE70BD00BF00BF02680C3252E8CC
:10420000002F22F4907102680C3242E80013002B58
:10421000F3D100BF00BF00BF0268143252E8002F84
:1042200022F001010268143242E80013002BF3D19E
:1042300000BF016B01290ED100BF00BF02680C3224
:1042400052E8002F22F0100102680C3242E80013FD
:10425000002BF3D100BF202180F83E100021016324
:10426000704710B504462068C06820F040002168FF
:10427000C860202084F83D002046FFF752F9002056
:1042800010BDF8B5044694F83E00222873D1A0680A
:10429000B0F5805F0CD1206950B90025A66A20686E
:1042A0004068C0F308003080A06A801CA06215E05E
:1042B000A56A0026A068B0F5805F03D0A06828B981
:1042C000206918B920684068287004E020684068B8
:1042D00000F07F002870A06A401CA062E08D401EA4
:1042E00080B2E085002844D12068C06820F020001A
:1042F0002168C8602068C06820F480702168C860A8
:104300002068406920F0010021684861202084F87D
:104310003E00206B012826D10020206300BF00BF93
:1043200021680C3151E8001F21F0100021680C3188
:1043300041E80002002AF3D100BF2068006800F0C5
:10434000100010280AD100BF0020009020680068EB
:10435000009020684068009000BF00BFA18D2046FB
:10436000FEF7BAFD02E02046FFF7DAF80020F8BDBC
:1043700001E00020FBE70220F9E700002DE9F84FFB
:1043800004462068006920F44050E1680843216831
:1043900008612169A068084361690843E16908432D
:1043A00000902068C06849F20C6188430099084376
:1043B0002168C8602068406920F44070A169084302
:1043C0002168486176492068884203D07549206891
:1043D000884203D1FDF7FAFE814602E0FDF7E6FED2
:1043E0008146E069B0F5004F6CD102206168A0FB06
:1043F000015003461920A9FB007001462A463846A1
:10440000FBF7B2FF6421B0FBF1F04FEA001A022083
:104410006168A0FB01510B461920A9FB00712A46D7
:104420003846FBF7A1FF834602206168A0FB0150DC
:1044300003461920A9FB00712A463846FBF794FF72
:104440006421B0FBF1F000EBC00101EB0010ABEB1D
:104450008000322101EBC0006421B0FBF1F000F0DC
:10446000F8000AEB400A02206168A0FB01500346F5
:104470001920A9FB007001462A463846FBF774FF55
:10448000834602206168A0FB015003461920A9FB66
:1044900000712A463846FBF767FF6421B0FBF1F054
:1044A00000EBC00101EB0010ABEB8000322101EB0F
:1044B000C0006421B0FBF1F000F007005044216817
:1044C00088606AE004206168A0FB0150034619205F
:1044D000A9FB007001462A463846FBF745FF824695
:1044E00004206168A0FB015003461920A9FB00705D
:1044F00001462A463846FBF737FF6421B0FBF1F04E
:1045000000EBC00101EB0010AAEB8000322101EBAF
:1045100000106421B0FBF1F000F0F00A04206168A3
:10452000A0FB017003461920A9FB00513A4628461A
:10453000FBF71AFF6421B0FBF1F00AEB001A04202C
:104540006168A0FB01510B461920A9FB00712A46A6
:104550003846FBF709FF834604206168A0FB015041
:1045600003461920A9FB007001462A463846FBF78E
:10457000FBFE6421B0FBF1F000EBC00101EB001089
:10458000ABEB8000322101EB00106421B0FBF1F0B5
:1045900000F00F00504421688860BDE8F88F0000EB
:1045A0000010014000140140014691F83D0021280F
:1045B00028D18868B0F5805F0BD1086948B90A6ACC
:1045C0001088C0F308000B685860086A801C0862F5
:1045D00005E00B6A581C086218780B685860C88C94
:1045E000401E80B2C88458B90868C06820F08000B6
:1045F0000B68D8600868C06840F040000B68D8605D
:10460000002070470220FCE708B5414800680068B8
:1046100000F0200060B100BF002000903C4800681E
:10462000006800903A4800684068009000BF6EE063
:104630003848006800F01000002868D000BF002053
:104640000090334800680068009031480068406876
:10465000009000BF00BF30480068006800F40020F0
:1046600058BB2D480068006820F001002A490968FD
:104670000860294800684068C0F124002749088084
:10468000242025490968486023480068006840F4F0
:1046900000202149096808601F480068006840F050
:1046A00001001D49096808601C48008812282ED1A5
:1046B0001B491C4800F09CFD29E017480068006871
:1046C00020F0010014490968086013480068406838
:1046D000C0F124001149088024200F49096848606E
:1046E0001148806A20F400200F4988620A48006857
:1046F000006840F001000849096808600748008820
:10470000122804D106490748243000F071FD08BD85
:10471000EC08002000480040D4090020C602002018
:10472000D00C0020E60C00200060024010B50248CA
:10473000FEF7D4FB10BD00003009002000BFFEE7EB
:1047400002480068C0F30220704700000CED00E052
:1047500010B5002804DB0A07130E054A135406E0BF
:104760000A07140E034A00F00F031B1FD45410BD98
:1047700000E400E018ED00E000B58BB001200990E6
:1047800000200790012008900020019002900390E3
:1047900004900690059001A90C48FCF7B1FA0B486B
:1047A000FCF7C7FE02210948FCF7EAF90E200A903F
:1047B000069001A90648FCF7A3FA0548FCF7B9FEE4
:1047C00002210348FCF7DCF90BB000BD1406002001
:1047D0003C06002070B504462068B0F9060000EBE6
:1047E0008000400000EE100AB8EEC00A84ED080A0E
:1047F0002068B0F9040000EB8000400000EE100AD1
:10480000B8EEC00A84ED090A2068B0F9000000EB98
:104810008000400000EE100AB8EEC00A84ED0A0ADB
:10482000D4ED0A1AB0EE611AD4ED091AF0EE610A5D
:10483000D4ED081AB0EE610A3A4800F0ABF83A48F5
:10484000B0F9060001EE100AB8EEC11AF0EE410A06
:10485000344890ED001AB0EE410A344800F0C2F836
:10486000334880ED000A3048B0F9220001EE100A0A
:10487000B8EEC11AF0EE410A2A4890ED011AB0EEE6
:10488000410A2C4800F0AEF8294880ED010A26487C
:10489000B0F93E0001EE100AB8EEC11AF0EE410A7E
:1048A000204890ED021AB0EE410A234800F09AF831
:1048B0001F4880ED020A1C48B0F95A0001EE100AA8
:1048C000B8EEC11AF0EE410A164890ED031AB0EEA8
:1048D000410A1A4800F086F8154880ED030A05469B
:1048E00095ED030ABDEEC00A10EE105A2BB2054634
:1048F00095ED020ABDEEC00A10EE105A2AB2054626
:1049000095ED010ABDEEC00A10EE105A29B2054617
:1049100095ED000ABDEEC00A10EE105A28B2FBF762
:10492000F3FE70BD700C002000020020F40A00208D
:10493000800C0020440B0020940B0020E40B00208E
:1049400010B50E4A01210E48FFF7A0F90B4A1832A4
:1049500001210C48FFF79AF9084A303201210A4830
:10496000FFF794F9054A483201210848FFF78EF90C
:1049700000F076F90649086010BD000090010020A3
:10498000F40A0020440B0020940B0020E40B0020CC
:10499000340C0020F1EE401A71EEE01A9FED102A5F
:1049A00042EE011AC0ED001A70EE601A9FED0C2A5B
:1049B00042EE011AC0ED011A70EE201A9FED082A8E
:1049C00042EE011AC0ED021AF1EE401A71EEA01A81
:1049D0009FED032A42EE011AC0ED031A7047000052
:1049E000CDCC4C3E10B52DED028B0446B0EE408A86
:1049F000F0EE608A24B99FED890ABDEC028B10BDF0
:104A00002046FFF737F94620005D28B12046E16CCB
:104A100088479FED820AF0E784ED018AC4ED028A9F
:104A2000207802287ED194ED030A84ED040A94EDE7
:104A3000010AD4ED020A30EE600A84ED030A94ED17
:104A4000030AB5EEC00AF1EE10FA02DD94ED030A96
:104A500003E094ED030AB1EE400AD4ED0E0AB4EE81
:104A6000E00AF1EE10FA6ADD94ED0C0AB5EEC00A28
:104A7000F1EE10FA02DD94ED0C0A03E094ED0C0A5D
:104A8000B1EE400AB5EEC00AF1EE10FA08DD94ED81
:104A9000060AD4ED030A30EE200A84ED060A03E08C
:104AA0009FED5E0A84ED060A00BF94ED060AD4ED80
:104AB0000F0AB4EEE00AF1EE10FA04DD94ED0F0AED
:104AC00084ED060A10E094ED060AD4ED0F0AF1EE2B
:104AD000600AB4EEE00AF1EE10FA05D294ED0F0A86
:104AE000B1EE400A84ED060A00BF94ED0B0AD4ED46
:104AF000030A20EE200A84ED070A94ED0C0AD4ED97
:104B0000060A20EE200A84ED080A94ED030AD4ED8B
:104B1000040A30EE600AD4ED0D0A20EE200A84ED7E
:104B2000090A00E00CE094ED070AD4ED080A30EE23
:104B3000200AD4ED090A30EE200A84ED0A0A48E082
:104B40002078012845D194ED040A84ED050A94EDFE
:104B5000030A84ED040A94ED010AD4ED020A30EE52
:104B6000600A84ED030A94ED030AD4ED040A30EEE2
:104B7000600AD4ED0B0A20EE200A84ED070A94EDBA
:104B80000C0AD4ED030A20EE200A84ED080A94ED05
:104B9000030AD4ED040AB0EE001A01EE600AD4ED67
:104BA000050A30EE200AD4ED0D0A20EE200A84ED2D
:104BB000090A94ED070AD4ED080A30EE200AD4ED74
:104BC000090A30EE200AD4ED0A0A30EE200A84EDFC
:104BD0000A0A00BF94ED0A0AD4ED100AB4EEE00A06
:104BE000F1EE10FA04DD94ED100A84ED0A0A10E0EB
:104BF00094ED0A0AD4ED100AF1EE600AB4EEE00A70
:104C0000F1EE10FA05D294ED100AB1EE400A84EDEF
:104C10000A0A00BF94ED0A0AEFE600000000000057
:104C200010B51369834200D010BD93881BB29381E5
:104C30004B7F0C7F43EA04239380CC7F8B7F44EA35
:104C400003231BB2D38021235C5C20235B5C44EAFA
:104C500003231BB2138122235B5C937200BFE3E743
:104C600000487047D00C0020FDF708F9FFF7D2F894
:104C7000FEF798FDFEF712FDFEF7CCFCFEF7ECFC0C
:104C8000FEF79EFFFEF7B8FFFEF754FCFEF78AFC26
:104C9000FEF75EFEFEF79EFEFEF7D2FEFEF75AFF1F
:104CA000FEF7C8FFFEF772FEFFF766FD00F096FA0A
:104CB000FEF748FD00F010F800BFFEE70021842851
:104CC00000D0C11C0846704710B5002800D1012053
:104CD00000F0CAFB002010BD10B500F0EDFB002075
:104CE00010BD30B585B004460D466169B4F90800C1
:104CF000002910D0A16971B1FFF7E0FF6269A169D5
:104D00000192029100902B4622692168606800F0B0
:104D10001DFD049010E0FFF7D1FF04A90191009060
:104D2000208A2B4682B22168606800F0D9FC0128F5
:104D300002D005B0002030BD049805B030BD0000A1
:104D40002DE9F04104460F46194EF5683068001D04
:104D500000F0BBFA48B93068012190F82C0001FA44
:104D600000F0316921EA00003061B4F1FF3F07D162
:104D700037B13068BDE8F041011D0E4800F0EDBAD2
:104D80002C4430684460AC4206D23068011DB06BE0
:104D9000BDE8F04100F0C6BA3068011D706B00F04C
:104DA000C1FAB06A844200D2B462BDE8F08100006A
:104DB000C80200200C0E002070B5044600F0DAFA9C
:104DC0001C4DA868401CA860286810B1686938B1FB
:104DD0000CE02C60A868012808D100F0EDF805E08F
:104DE0002868E16AC06A884200D82C60686A401C62
:104DF0006862E06A01212A698140114329610E49F4
:104E000000EB800001EB8000211D00F0A6FA00F00D
:104E1000D1FA686900280CD02868E16AC06A884223
:104E200007D206494FF080500860BFF34F8FBFF3A1
:104E30006F8F70BDC8020020300D002004ED00E02F
:104E400070B50D4C6068002815D00C4E00F092FA39
:104E5000F068C568281D00F038FAA068401EA06000
:104E60006068401E606000F0A5FA284600F008F86F
:104E700060680028EAD170BDC8020020F80D00204B
:104E800010B5044694F8511000290BD0012911D017
:104E9000022914D0502080F31188BFF34F8FBFF345
:104EA0006F8FFEE7206B00F09BFA2046BDE81040B4
:104EB00000F096BA2046BDE8104000F091BA10BD4F
:104EC0004FF47051104810F0070F06D0C01D20F0AD
:104ED00007000D49411AC1F570510C4A10600023BA
:104EE00053600144083921F00701183A11604B6002
:104EF0000B600B1A436001604068906050604FF097
:104F00000040506170470000200E00201C0300206C
:104F1000074E4FF08054074DFFF792FF306801288D
:104F2000FAD92C60BFF34F8FBFF36F8FF4E7000007
:104F3000300D002004ED00E02DE9F0478146099E88
:104F4000089D0A9C9A46521E206B00EB820020F0BE
:104F50000708002700290CD0002023180A5C83F8DA
:104F600034200A5C12B1401C1028F6D384F8437038
:104F700001E084F83470072D00D30625E5626564EE
:104F8000A764201D00F0CBF904F1180000F0C7F968
:104F90002461C5F10700A0616462E76484F8507081
:104FA00052464946404600F003F92060002E00D0EA
:104FB0003460BDE8F087000070B500240F4D04EBAD
:104FC000840005EB800000F09FF9641C072CF6D3E9
:104FD0000B4800F099F90B4800F096F90A4800F0E8
:104FE00093F90A4800F090F9094800F08DF9094852
:104FF000034941631431816370BD0000300D00200E
:10500000BC0D0020D00D0020E40D0020F80D002084
:105010000C0E0020C802002010B4144900E0114614
:105020000A688242FBD34B6803EB010C844503D131
:1050300040681844486008460C68D0F804C00CEB7F
:105040000003A3420CD10A4B1B689A4206D0526857
:10505000624442600A681268026002E0036000E095
:105060000260814200D0086010BC70471C03002021
:10507000040300200749486B0068002805D0486BEE
:10508000C068C0684068886270474FF0FF3088622F
:1050900070470000C80200200A484068B0F1FF3F96
:1050A00007D0502080F31188BFF34F8FBFF36F8F6D
:1050B000FEE7502080F31188BFF34F8FBFF36F8F4F
:1050C000FEE70000240300202DE9F04105460026FC
:1050D00000F036FA344F386808B9FFF7F1FE786906
:1050E000054251D19DB1083515F0070F0FD005F0DD
:1050F0000700C0F10800054415F0070F07D0502045
:1051000080F31188BFF34F8FBFF36F8FFEE7002D41
:105110003AD07868854237D824490846046801E0C7
:10512000214604466068A84202D220680028F7D1D0
:105130003868844228D0086800F1080620680860B2
:105140006068411B10290FD9601910F0070F07D0B4
:10515000502080F31188BFF34F8FBFF36F8FFEE7AE
:1051600041606560FFF758FF61687868401A7860B1
:10517000BA68904200D2B860786908436060002045
:105180002060F868401CF86000F088FB16F0070FFC
:1051900007D0502080F31188BFF34F8FBFF36F8F7C
:1051A000FEE73046BDE8F081040300201C03002028
:1051B000001F4FF080730360001F21F001010160A8
:1051C000001F0549016014380260001F6FF00201E2
:1051D00001602038704700009950000800B5242273
:1051E0000249A1F12400FEF7BDFD00BD0A0D00201B
:1051F00000B101B970470278437842EA0322C2F352
:105200000A020A804278D210837842EA4312C2F33B
:105210000A024A8082789211C37842EA83020379B3
:1052200042EA8322C2F30A028A8002795210437949
:1052300042EAC312C2F30A02CA804279C2F30112DF
:105240008A72427912119308CB728279C37942EA49
:10525000032212B28A81027A437A42EA032213B20B
:1052600001F10C02CB81827AC37A42EA032213B2A3
:1052700001F10C020B82037B8B74437BCB74827B2A
:10528000C37B42EA03228A82027C437C42EA0322F5
:1052900012B20A810A88A2F5806212B20A804A8894
:1052A000A2F5806212B24A808A88A2F5806212B2A8
:1052B0008A80CA88A2F5806212B2CA800A89A2F5E1
:1052C000806212B20A8100BF94E701694368826874
:1052D0009A60836842685A604A68824201D1826853
:1052E0004A60002202610868401E08600868704732
:1052F000034B0360034B0B60802313607047000077
:10530000300300208403002000F1080141604FF0C9
:10531000FF328260C160016100210160704700219D
:105320000161704710B4D1F800C0BCF1FF3F02D05A
:1053300000F1080202E0026904E01A4653681C68A2
:105340006445FAD953684B6099608A60516008617E
:105350000168491C016010BC704742684A6093684C
:105360008B6093685960916008610168491C016015
:1053700070470000502080F31188BFF34F8FBFF3B8
:105380006F8F0A494868401C486001280CD10848C2
:10539000006810F0FF0F07D0502080F31188BFF392
:1053A0004F8FBFF36F8FFEE770470000240300208C
:1053B00004ED00E009494868002806D0401E486016
:1053C000002801D180F311887047502080F31188A4
:1053D000BFF34F8FBFF36F8FFEE700002403002061
:1053E00070B500282AD0A0F10804154D60686969DD
:1053F000084207D1502080F31188BFF34F8FBFF3CD
:105400006F8FFEE722683AB1502080F31188BFF316
:105410004F8FBFF36F8FFEE78843606000F090F816
:1054200060686968084468602046FFF7F5FD2869F0
:10543000401C2861BDE8704000F030BA70BD00002B
:10544000040300204FF0E020002101618161054943
:105450004FF47A720968B1FBF2F1491E41610721EC
:1054600001617047FC01002010B502460020002AAF
:1054700012D00F48006B38B1502080F31188BFF371
:105480004F8FBFF36F8FFEE700F05AF800211046F0
:10549000FFF756FC00F002FA002807D105494FF04B
:1054A00080500860BFF34F8FBFF36F8F10BD0000B7
:1054B000C802002004ED00E010B586B00024059479
:1054C000049403AA04A905A8FFF712FF05980499FC
:1054D000019102900023009415A11748039A00F04F
:1054E00035F91649C86208B1012000E00020012802
:1054F0000AD0B0F1FF3F19D1502080F31188BFF3DB
:105500004F8FBFF36F8FFEE7502080F31188BFF3FA
:105510004F8FBFF36F8F4FF0FF30886201204861DB
:10552000CC6006B0BDE8104000F042B806B010BD37
:1055300049444C4500000000114F0008C8020020FB
:105540000248016B491C016370470000C80200203B
:10555000154A106B002802D00120D061704700204E
:10556000D0611069B0FA80F0C0F11F000F4900EB64
:10557000800051F8203073B101EB80004168496828
:10558000416000F10803994201D1496841604068D7
:10559000C06810607047502080F31188BFF34F8FB0
:1055A000BFF36F8FFEE70000C8020020300D00201F
:1055B00010B582B038480168384A914207D150206E
:1055C00080F31188BFF34F8FBFF36F8FFEE7006842
:1055D0003349884207D1502080F31188BFF34F8FA1
:1055E000BFF36F8FFEE72F4908780190FF20087006
:1055F000087800909DF800009DF8002000F0F00071
:10560000904207D0502080F31188BFF34F8FBFF333
:105610006F8FFEE79DF80000234C00F050002070D3
:105620000720A0609DF8000010F0800F0BD0A0684C
:10563000401EA0609DF80000400000909DF8000012
:1056400010F0800FF3D1A068032807D0502080F31A
:105650001188BFF34F8FBFF36F8FFEE74FF4407099
:10566000A060019808701148016841F47001016060
:10567000016841F070410160FFF7E4FE00206060C6
:10568000FAF716FE0A48016841F040410160FAF756
:10569000FBFD02B0002010BD00ED00E071C20F4123
:1056A00070C20F4100E400E02403002020ED00E080
:1056B00034EF00E010B5502080F31188BFF34F8F16
:1056C000BFF36F8F00F080F818B104494FF080509D
:1056D0000860002080F3118810BD000004ED00E098
:1056E0002DE9F04F85B081460F9F0E9E8A46904669
:1056F0009B464FEA8800FFF7E7FC054628000AD0E2
:105700005420FFF7E1FC04460CB1256304E0284671
:10571000FFF766FE00E000249CB1002084F85100F1
:1057200003905B46424651460197009602944846D4
:10573000FFF702FC2046FFF73FFB05B00120BDE864
:10574000F08F05B04FF0FF30BDE8F08F70B586B038
:105750000646DDF828C00C9C0B98002816D0ECB14A
:10576000542504952063022084F85100002005ADE3
:105770000390CDF800C0019502943046FFF7DCFBA2
:105780002046FFF719FB059806B070BD502080F346
:105790001188BFF34F8FBFF36F8FFEE7502080F368
:1057A0001188BFF34F8FBFF36F8FFEE70548416944
:1057B000002903D0006B18B100207047012070470A
:1057C00002207047C80200202DE9F0470026314F23
:1057D000386B002805D0B869401CB8613046BDE878
:1057E000F087F868451CFD609DB9786B006838B19A
:1057F000502080F31188BFF34F8FBFF36F8FFEE708
:10580000786BB96B7963B863386A401C3862FFF70C
:1058100031FCB86ADFF8808085420FD34FF0010970
:10582000786B006838B1786BC068C468606885427E
:1058300012D2B86202E04FF0FF30B8623868C06A36
:1058400000EB800058F82000012800D90126F869F3
:105850000028C3D00126C1E7201DFFF736FDA06A4E
:1058600018B104F11800FFF730FDE16A3A6909FA4E
:1058700001F01043386101EB810008EB8000211D2D
:10588000FFF76BFDE06A3968C96A8842C8D3012610
:10589000C6E70000C8020020300D00202DE9F047C7
:1058A0000024A0462D4D286B002807D0FFF762FD8D
:1058B000286B401E2863286B40B149E0502080F3DC
:1058C0001188BFF34F8FBFF36F8FFEE7A8680028E2
:1058D0003ED0234F3868012600B3A7F1B409F86819
:1058E000C46804F11800FFF7F0FC201DFFF7EDFC81
:1058F000E06A2A6906FA00F11143296100EB800091
:1059000009EB8000211DFFF728FDE06A2968C96ABC
:10591000884200D3EE6138680028E0D10CB1FFF76F
:10592000A9FBAC6944B1FFF74FFF00B1EE61641E03
:10593000002CF8D10020A861E86948B14FF00108B7
:1059400008494FF080500860BFF34F8FBFF36F8F4F
:10595000FFF730FD4046BDE8F0870000C802002098
:10596000E40D002004ED00E04FF04070E1EE100A7D
:1059700070470000F05900086507000803000000A8
:105980000000000080000000000000000000000097
:10599000FC590008BD0800080300000000000000DA
:1059A000800000000000000000000000E85900082E
:1059B00029350008030000000000000080000000FE
:1059C000000000000000000000061016000610167F
:1059D000000000000000000001020304060708099F
:1059E0000000000001020304494E535461736B0030
:1059F000436861737369735461736B0044657465C4
:105A000063745461736B0000285A00080000002082
:105A100030030000C4010008805A00083003002051
:105A2000504D000020020008D1E20202CF080B5CBA
:105A3000FF01E00B4502036024401C45237A4633F6
:105A400050410A4E3F18321042011324F4E3010280
:105A500013140623200C2A20200A16021C191D0AE2
:105A600016031C19180A16041C22030A11061C5AD4
:105A7000EC1CDA051C5A3C1C110282051AAA0141D1
:040000050800018965
:00000001FF
