:020000040800F2
:10000000080E002069020008CD3400080530000801
:10001000C9340008C1050008B93F0008000000000D
:10002000000000000000000000000000FD36000895
:1000300063070008000000005D360008FF36000876
:10004000830200088302000883020008830200087C
:10005000830200088302000883020008830200086C
:100060008302000883020008650700088302000875
:100070004506000883020008830200088302000886
:10008000830200088302000883020008830200083C
:10009000C505000883020008830200086F070008F6
:1000A000830200088302000883020008830200081C
:1000B000830200088302000883020008830200080C
:1000C00083020008830200088302000883020008FC
:1000D00083020008853E000883020008953E000860
:1000E00083020008830200088302000883020008DC
:1000F00083020008830200088302000883020008CC
:1001000083020008830200088302000883020008BB
:1001100083020008830200088302000883020008AB
:1001200083020008830200085506000865060008DF
:10013000830200088302000883020008830200088B
:10014000D505000883020008830200088302000826
:100150008302000883020008750600088302000875
:10016000830200088302000883020008830200085B
:1001700083020008830200088302000800000000D8
:10018000830200088302000800F002F800F05CF827
:100190000AA090E8000C82448344AAF10107DA45E2
:1001A00001D100F051F8AFF2090EBAE80F0013F0D8
:1001B000010F18BFFB1A43F001031847E841000084
:1001C000084200000A444FF0000C10F8013B13F005
:1001D000070408BF10F8014B1D1108BF10F8015BA0
:1001E000641E05D010F8016B641E01F8016BF9D193
:1001F00013F0080F1EBF10F8014BAD1C0C1B09D1EA
:100200006D1E58BF01F801CBFAD505E014F8016B5B
:1002100001F8016B6D1EF9D59142D6D370470000ED
:100220000023002400250026103A28BF78C1FBD8FF
:10023000520728BF30C148BF0B6070471FB504F09C
:100240009BF81FBD10B510BD00F0CFF81146FFF7A9
:10025000F5FF03F021FF00F0EDF803B4FFF7F2FF24
:1002600003BC00F0F5F80000094880470948004742
:10027000FEE7FEE7FEE7FEE7FEE7FEE7FEE7FEE756
:10028000FEE7FEE704480549054A064B70470000B3
:10029000BD3700088901000808080020080E00206A
:1002A000080A0020080A002053EA020C00F06980C6
:1002B0002DE9F04B4FF00006002B1FBFB3FA83F57A
:1002C00003FA05F424FA05F65E4012BF1643B2FAAB
:1002D00082F502FA05F4C5F120051EBF22FA05FCDD
:1002E00044EA0C04203556EA044C4FEA144418BF83
:1002F000641C4FF000084FF00009904271EB030CB2
:1003000039D3002919BFB1FA81F701FA07F6B0FA1B
:1003100080F700FA07F6C7F120071EBF20FA07FC96
:1003200046EA0C062037B6FBF4FCA7EB0507103FA6
:1003300007F01F0BCBF120060CFA0BFB2CFA06F68C
:1003400044BFB3460026202FA4BF5E464FF0000BEB
:100350005BEA060C08BF4FF0010B19EB0B09ABFB76
:10036000027C48EB0608C01B06FB02CC0BFB03CC4F
:1003700071EB0C01C1E70B46024641464846BDE819
:10038000F08B13B54FF000004FF00001AFF3008089
:10039000BDE81C4070474FF0000200B5134694467C
:1003A0009646203922BFA0E80C50A0E80C50B1F1CD
:1003B0002001BFF4F7AF090728BFA0E80C5048BFE1
:1003C0000CC05DF804EB890028BF40F8042B08BF7F
:1003D000704748BF20F8022B11F0804F18BF00F87B
:1003E000012B7047704770477047754600F02CF836
:1003F000AE4605006946534620F00700854618B012
:1004000020B5FFF73FFFBDE820404FF000064FF05A
:1004100000074FF000084FF0000B21F00701AC4639
:10042000ACE8C009ACE8C009ACE8C009ACE8C00958
:100430008D46704710B50446AFF300802046BDE8F6
:100440001040FFF70ABF000000487047A4070020D3
:1004500001491820ABBEFEE72600020070470000ED
:1004600055494A6822F440324A604A6843681A4350
:100470004A600268526822F4807203685A60026817
:100480005368026943EA022203685A6002685268AC
:1004900022F0407203685A600268526883681A4307
:1004A00003685A600268926822F4006203689A60E6
:1004B00002689268C3681A4303689A603F4B826A75
:1004C0009A4218D00268926822F0706203689A60BB
:1004D00002689268836A1A4303689A6002689268A5
:1004E00022F0405203689A6002689268C36A1A4315
:1004F00003689A600BE00268926822F070620368F9
:100500009A600268926822F0405203689A6002681A
:10051000926822F0020203689A6002689368027E81
:1005200043EA420203689A602022125CA2B1026888
:10053000526842F4006203685A600268526822F40A
:10054000604203685A6002685368426A521E43EA76
:10055000423203685A6005E00268526822F4006281
:1005600003685A600268D26A22F470020368DA6291
:100570000268D36A828B521E43EA02520368DA622F
:100580000268926822F4007203689A6002689368B5
:1005900090F8302043EA422203689A600268926829
:1005A00022F4806203689A6002689368426943EAB1
:1005B000822203689A607047002301400100000F07
:1005C00000BFFEE710B5024800F03AFC10BD000085
:1005D000B803002010B5024800F032FC10BD000046
:1005E000E0030020F8B504460D4616461F461248A3
:1005F000D0F8E000114908600F48D0F8E8008860A2
:100600000D48D0F8EC00C86008200861200A087680
:1006100008464476290A8176C576310A01774677FD
:10062000390A8177C7776B4600F118020146044802
:1006300000F00BFAF8BD0000200000202407002085
:10064000E003002010B5024800F064FF10BD000078
:10065000A406002010B5024800F05CFF10BD0000A9
:10066000B404002010B5024800F054FF10BD000093
:100670001405002010B5024800F04CFF10BD00002A
:10068000440600200146087810381823B0FBF3F226
:100690000848805CC865032A05D908686FF309001B
:1006A000001D886503E008686FF309008865886DA0
:1006B0007047000082430008014600208A6A8B6967
:1006C000CBB932B1012A0DD0022A03D0032A10D1AE
:1006D0000EE000BFCB6A03F08073B3F1807F00D1DE
:1006E000012007E0CB6AB3F1C07F00D1012001E017
:1006F00000E000BF34E08B69B3F5005F1AD132B17E
:10070000012A07D0022A03D0032A11D10AE000BF30
:1007100001200EE0CB6A03F08073B3F1807F00D13B
:10072000012006E0CB6AB3F1C07F00D1012000E0D8
:1007300000BF15E032B1012A05D0022A04D0032AF5
:100740000CD103E000BF00BF012008E0CB6A03F03A
:100750008073B3F1807F00D1012000E000BF00BFB3
:100760007047704710B5102001F080F810BD10B52B
:10077000202001F07BF810BD72B600BFFEE700003C
:1007800038B502460020009000BF92F83C000128D6
:1007900001D1022038BD012082F83C0000BF08686A
:1007A000092816D91068C0680C780A3C04EB440587
:1007B0000724AC40A0431468E0600C780A3C04EBCA
:1007C00044048868A0401468E46820431468E0602A
:1007D00013E0106800690C7804EB44050724AC4072
:1007E000A043146820610C7804EB44048868A0409E
:1007F000146824692043146820614868072817D2C8
:100800001068406B0C79641E04EB84051F24AC4017
:10081000A04314686063088880B20C79641E04EBFE
:100820008404A0401468646B20431468606331E062
:1008300048680D2817D21068006B0C79E41F04EB90
:1008400084051F24AC40A04314682063088880B24C
:100850000C79E41F04EB8404A0401468246B20434B
:100860001468206316E01068C06A0C790D3C04EB34
:1008700084051F24AC40A0431468E062088880B25D
:100880000C790D3C04EB8404A0401468E46A204316
:100890001468E062194B1A4C1068A04206D108682F
:1008A000122803D1586840F480005860144C106836
:1008B000A0421CD10868102802D00868112816D15F
:1008C000586840F400005860086810280FD10D489F
:1008D00000680D4CB0FBF4F000EB8000400000908D
:1008E00002E00098401E009000980028F9D100BF57
:1008F000002082F83C0000BF00BF4BE7002301400E
:1009000000200140B001002040420F0070B50446B5
:1009100000250CB9012070BD1549A06A884200D09D
:1009200000BF206C30B9204600F024F8002060643D
:1009300084F83C00206C00F0100088B9206C20F492
:10094000885040F0020020642046FFF789FD002017
:100950006064206C20F0020040F00100206400E0A0
:10096000012500BF002084F83C0000BF2846D2E7E4
:100970000100000F10B586B00446142101A8FFF74E
:100980000AFD2349206888420FD100BF0020009053
:100990002048006840F480701E49086008460068DE
:1009A00000F48070009000BF2FE01B49206888424F
:1009B0002BD100BF002000901648006840F48060F2
:1009C000144908600846006800F48060009000BF89
:1009D00000BF00BF002000900E481438006840F0AF
:1009E00020000C49143908600846006800F0200017
:1009F000009000BF00BF0815019003200290002066
:100A0000039001A9054800F03FFF06B010BD0000AB
:100A100000200140443802400022014000140240FE
:100A200010B5024692F82030012B01D0022B06D1DE
:100A300010684069084314686061002010BD506A66
:100A400040F4802050620120F8E7F0B504460D46DE
:100A50001E4694F8207020688368A86800B900E0FA
:100A600000BF012F01D0022F7CD103F0806030B98C
:100A700003F0006018B903F08050002873D0C3F36E
:100A80000161022905D9606A40F40000606201201A
:100A9000F0BD012088403060A86860B9B5F800C09A
:100AA000E86840EA4C5C206800F5C07000EB01107B
:100AB000C0F800C00FE0D5E901C040EACC00D5F88D
:100AC0000CC040EA0C00D4F800C00CF5C07C0CEB64
:100AD000011CCCF80000D5F810C0206800F5C070EB
:100AE00000EB0110C0F804C0287D01280ED1206859
:100AF00000F5C07000EB0110406840F4807C206875
:100B000000F5C07000EB0110C0F804C0D0790006F9
:100B100092F806C040EA0C4092F805C040EA0C2C5E
:100B200010794CEA000C206800F5C07000EB011051
:100B3000C0F80CC0D078000692F802C040EA0C4021
:100B400092F801C040EA0C2092F800C040EA0C0084
:100B5000D4F800C00CF5C07C0CEB011CCCF80800EC
:100B6000206801E016E00FE000F5C07000EB011016
:100B7000006840F0010C206800F5C07000EB011027
:100B8000C0F800C0002083E7606A40F40010606293
:100B900001207DE7606A40F480206062012077E7F1
:100BA000F0B504460A46216894F82050012D01D082
:100BB000022D7ED1424901F50071086840F0010024
:100BC0000860086820F47C5008600868566A40EAAB
:100BD00006200860107D00F01F06012000FA06F3D1
:100BE000C8699843C861A1F50071D069C8B9D1F846
:100BF0000C029843C1F80C02908880B2968940EAB2
:100C0000064601F51070576940F83760108880B2C9
:100C1000168940EA064601F51070576900EBC700D7
:100C20004660D069012819D1D1F80C021843C1F8E7
:100C30000C02908880B2168840EA064601F51070D2
:100C4000576940F83760908980B2168940EA0646B5
:100C500001F51070576900EBC7004660906928B92C
:100C6000D1F804029843C1F8040204E0D1F8040268
:100C70001843C1F80402106928B9D1F81402984346
:100C8000C1F8140204E0D1F814021843C1F81402A8
:100C9000106A012804D1D1F81C021843C1F81C02C3
:100CA000D1F8000220F00100C1F800020020F0BDE0
:100CB000FFE7606A40F4802060620120F7E70000EF
:100CC00000640040704770B5044694F82050012D30
:100CD00001D0022D7DD151B92068C06800F0030019
:100CE00080B9606A40F400106062012070BD206825
:100CF000006900F0030028B9606A40F400106062E7
:100D00000120F3E7206800F5D87000EB01100068BF
:100D100000F004009060906840B9206800F5D87039
:100D200000EB01100068400D106007E0206800F53E
:100D3000D87000EB01100068C0085060206800F512
:100D4000D87000EB0110006800F00200D06020684D
:100D500000F5D87000EB0110406800F00F00106142
:100D6000206800F5D87000EB0110406800F47F4067
:100D7000000A9061206800F5D87000EB011040680F
:100D8000000C5061206800F5D87000EB01108068FD
:100D90001870206800F5D87000EB0110806800F42E
:100DA0007F40000A5870206800F5D87000EB0110F1
:100DB000806800F47F00000C9870206800F5D870FF
:100DC00000EB01108068000ED870206800F5D87024
:100DD00000E02FE000EB0110C0681871206800F5FA
:100DE000D87000EB0110C06800F47F40000A587111
:100DF000206800F5D87000EB0110C06800F47F0097
:100E0000000C9871206800F5D87000EB0110C068E4
:100E1000000ED87131B92068C06840F02000266803
:100E2000F06005E02068006940F02000266830612D
:100E300000205BE7606A40F480206062012055E793
:100E40002DE9F05F04460025206846692068D0F847
:100E50000490206887682068D0F80CA02068D0F83B
:100E600010B02068D0F8188006F00100002855D096
:100E700007F00100C0B101202168886007F002007E
:100E800018B1204600F0D5FA0EE007F0040010B1CA
:100E900045F4006508E007F0080010B145F48055FE
:100EA00002E0204600F0C4FA07F48070C8B14FF4A5
:100EB00080702168886007F4007018B1204600F047
:100EC000BAFA0EE007F4806010B145F4005508E06E
:100ED00007F4006010B145F4804502E0204600F0C0
:100EE000A9FA07F48030C8B14FF4803021688860D7
:100EF00007F4003018B1204600F09FFA0EE007F426
:100F0000802010B145F4004508E007F4002010B13E
:100F100045F4803502E0204600F08EFA06F0080025
:100F200038B10AF0100020B145F400751020216896
:100F3000C86006F0040040B10AF0080028B108209B
:100F40002168C860204600F00DFA06F0020038B1B2
:100F50002068C06800F0030010B1204600F004FAD9
:100F600006F0400038B10BF0100020B145F4806568
:100F700010202168086106F0200040B10BF0080045
:100F800028B1082021680861204600F01FFA06F009
:100F9000100038B12068006900F0030010B120464D
:100FA00000F015FA06F4003040B109F0100028B145
:100FB000102021684860204600F00AFA06F48030CC
:100FC00040B109F0080028B1082021684860204697
:100FD00000F034FA06F4004088B309F0040078B356
:100FE00006F4807020B108F0010008B145F0010559
:100FF00006F4007020B108F0020008B145F00205C7
:1010000006F4806020B108F0040008B145F0040542
:1010100006F40060A0B108F0700088B108F070001C
:10102000402817D006DC10280BD020280CD0302800
:1010300019D10CE0502810D0602814D110E01DE028
:1010400019E045F008050FE045F010050CE045F00B
:10105000200509E045F0400506E045F0800503E085
:1010600045F4807500E000BF00BF2068806920F073
:101070007000216888610420216848602DB1606A91
:10108000284360622046FFF71DFEBDE8F09F70B563
:1010900004460CB9012070BD94F8200010B9204618
:1010A00000F0B0F82068006840F001002168086096
:1010B00000F0EAFC05460DE000F0E6FC401B0A28C3
:1010C00008D9606A40F400306062052084F820008E
:1010D0000120E0E72068406800F001000028EBD024
:1010E0002068006820F002002168086000F0CCFC55
:1010F00005460DE000F0C8FC401B0A2808D9606ACC
:1011000040F400306062052084F820000120C2E72E
:101110002068406800F002000028EBD1207E012802
:1011200006D12068006840F080002168086005E072
:101130002068006820F0800021680860607E012837
:1011400006D12068006840F040002168086005E092
:101150002068006820F0400021680860A07E012817
:1011600006D12068006840F020002168086005E092
:101170002068006820F0200021680860E07E0128D7
:1011800006D12068006820F010002168086005E0A2
:101190002068006840F0100021680860207F012866
:1011A00006D12068006840F008002168086005E06A
:1011B0002068006820F0080021680860607F01282E
:1011C00006D12068006840F004002168086005E04E
:1011D0002068006820F0040021680860D4E902015A
:1011E000084321690843616908436168491E08434F
:1011F0002168C86100206062012084F8200000207E
:1012000049E7000010B586B00446142101A8FFF795
:10121000C2F84E492068884241D14D480068401CC0
:101220004B4908600846006801280FD100BF002024
:1012300000904848006840F0007046490860084641
:10124000006800F00070009000BF00BF00BF0020E9
:10125000009040481038006840F008003D491039BF
:1012600008600846006800F00800009000BF00BF5A
:10127000032001900220029000200390032004909C
:101280000920059001A9344800F0FEFA0022114619
:10129000142000F0CFFD142000F0BCFD54E02F49D5
:1012A0002068884250D100BF002000902948006883
:1012B00040F08060274908600846006800F08060C0
:1012C000009000BF00BF22480068401C2049086011
:1012D0000846006801280FD100BF002000901D487B
:1012E000006840F000701B4908600846006800F084
:1012F0000070009000BF00BF00BF002000901548A4
:101300001038006840F002001249103908600846A1
:10131000006800F00200009000BF00BF6020019054
:1013200002200290002003900320049009200590E1
:1013300001A90B4800F0A8FA00221146402000F055
:1013400079FD402000F066FD06B010BD006400404D
:10135000A001002040380240000C0240006800401C
:10136000000402407047000010B58AB0044608AB84
:1013700001AA00212046FFF7A6FC0198A0F2012057
:1013800007281BD2DFE800F00405060708090A0059
:1013900000BF00BF00BF00BF00BF00BF0198401EDC
:1013A0000849087008460078C0EBC000064901EB08
:1013B000800201A9204602F04BFE00E000BF00BF02
:1013C0000AB010BD78020020B401002070477047B9
:1013D000704770B5044694F82000012822D10220FD
:1013E00084F820002068006820F00100216808606F
:1013F00000F04AFB05460DE000F046FB401B0A28C2
:1014000008D9606A40F400306062052084F820004A
:10141000012070BD2068406800F001000028EBD179
:101420006062F6E7606A40F4002060620120F0E745
:10143000704770477047704770477047704770B586
:101440000446A56D00F020FB064694F835000228FE
:1014500008D08020606500BF002084F8340000BF01
:10146000012070BD2068006820F016002168086027
:101470002068406920F0800021684861206C08B92C
:10148000A06C28B12068006820F00800216808607E
:101490002068006820F001002168086010E000F07A
:1014A000F3FA801B05280BD920206065032084F8FF
:1014B000350000BF002084F8340000BF0320D0E7CF
:1014C0002068006800F001000028E8D194F85C1062
:1014D0003F208840A860012084F8350000BF00202C
:1014E00084F8340000BF00BFBBE7014691F8350027
:1014F000022803D08020486501207047052081F82C
:1015000035000868006820F001000A6810600020BB
:10151000F3E70000F8B50446002000908C4800680E
:101520004FF41651B0FBF1F7A56D2E6894F85C10DE
:1015300008208840304098B12068006800F004001E
:1015400070B12068006820F004002168086094F8F9
:101550005C1008208840A860606D40F00100606564
:1015600094F85C1001208840304068B120684069E0
:1015700000F0800040B194F85C1001208840A86021
:10158000606D40F00200606594F85C1004208840B3
:10159000304068B12068006800F0020040B194F863
:1015A0005C1004208840A860606D40F00400606515
:1015B00094F85C1010208840304078B320680068B0
:1015C00000F0080050B394F85C1010208840A86028
:1015D0002068006800F4802080B12068006800F472
:1015E000002028B9206CC8B12046216C884715E03E
:1015F000A06C98B12046A16C88470FE02068006875
:1016000000F4807028B92068006820F00800216884
:101610000860206C10B12046216C884794F85C105B
:10162000202088403040002865D02068006800F005
:10163000100000285FD094F85C1020208840A8603B
:1016400094F83500052828D12068006820F016009D
:10165000216808602068406920F0800021684861A6
:10166000206C08B9A06C28B12068006820F0080040
:101670002168086094F85C103F208840A860012031
:1016800084F8350000BF002084F8340000BF206DCE
:1016900010B12046216D8847F8BD2068006800F42D
:1016A000802080B12068006800F4002028B9606CB8
:1016B00010B12046616C88471DE0E06BD8B1204630
:1016C000E16B884717E02068006800F4807068B913
:1016D0002068006820F0100021680860012084F86C
:1016E000350000BF002084F8340000BFE06B10B16B
:1016F0002046E16B8847606D38B3606D00F00100F3
:10170000F0B1052084F835002068006820F0010061
:101710002168086000BF0098401C0090B84200D9C2
:1017200005E02068006800F001000028F3D100BF48
:10173000012084F8350000BF002084F8340000BF89
:10174000E06C10B12046E16C884700BFA4E70000C0
:10175000B00100202DE9F0410446002500F094F985
:10176000074614B90120BDE8F081606A00B100BFEE
:10177000022084F8350000BF002084F8340000BF48
:101780002068006820F00100216808600AE000F08D
:101790007BF9C01B052805D920206065032084F84B
:1017A0003500E0E72068006800F001000028EED175
:1017B0002068056821480540D4E901010843E16833
:1017C00008432169084361690843A1690843E16945
:1017D0000843216A08430543606A042803D1D4E919
:1017E0000B0108430543206805602068456925F022
:1017F0000705606A0543606A04280DD1A06A0543A5
:10180000E06A48B12046FEF757FF28B140206065E6
:10181000012084F83500A6E7206845612046FEF7E0
:1018200031FF064694F85C103F208840B0600020ED
:101830006065012084F83500002094E73F8010F0B7
:1018400070B5044600F020F906462546681C10B124
:1018500004480078054400BF00F016F9801BA84238
:10186000FAD370BDAC0100207047000010B50446EB
:1018700004480068204020B1024804602046FFF779
:10188000F3FF10BD143C0140F8B502460B4600259D
:10189000002400200021D6E0012606FA01F51E688A
:1018A00006EA0504AC4274D11E7906F00306012E47
:1018B00004D01E7906F00306022E13D190684F0063
:1018C0000326BE40B0434F00DE68BE403043906008
:1018D000506801268E40B0431E79C6F300168E4034
:1018E000304350601E7906F00306032E09D0D068FD
:1018F0004F000326BE40B0434F009E68BE403043B9
:10190000D0601E7906F00306022E13D1CF0802F133
:10191000200656F827004E07F70E0F26BE40B043AC
:101920004F07FF0E1E69BE403043CF0802F120066C
:1019300046F8270010684F000326BE40B0431E79CA
:1019400006F003064F00BE40304310605E6806F4A8
:101950004036002E76D000BF002600963C4E3668FA
:1019600046F480463A4F3E603E46366806F480466E
:10197000009600BF00BF374E8F0856F827008E072D
:10198000370F0F26BE40B043334EB24202D100267D
:1019900024E057E0314EB24201D101261EE0304E24
:1019A000B24201D1022619E02E4EB24201D10326E5
:1019B00014E02D4EB24201D104260FE02B4EB2426C
:1019C00001D105260AE02A4EB24201D1062605E0E1
:1019D000284EB24201D1072600E008268F073F0FAC
:1019E000BE4030431B4E8F0846F82700224E306819
:1019F000A0435E6806F4801606B120431E4E306098
:101A0000361D3068A0435E6806F4001606B1204318
:101A1000194E361D3060184E361F3068A0435E6880
:101A200006F4003606B12043134E361F3060361FD1
:101A30003068A0435E6806F4803606B120430E4E3F
:101A4000083E3060491C1029FFF426AFF8BD0000A5
:101A500044380240083801400000024000040240BF
:101A600000080240000C0240001002400014024036
:101A700000180240001C0240083C01400AB181618C
:101A800001E00B0483617047014800687047000063
:101A9000A401002070B504460CB9012070BD94F873
:101AA0003D0028B9002084F83C00204600F0DAF818
:101AB000242084F83D002068006820F0010021689F
:101AC00008602068006840F40040216808602068D1
:101AD000006820F400402168086000F0C5FA05465F
:101AE0005C496068884206D85B48854201D2012083
:101AF00007E0002005E05948854201D2012000E0BE
:101B00000020012800D1C9E75548B5FBF0F6206850
:101B1000406820F03F003043216848604D496068CC
:101B2000884201D8701C07E04FF4967070434FF460
:101B30007A71B0FBF1F0401C2168096A21F03F0185
:101B400008432168086243496068884214D8681EC7
:101B500061684900B0FBF1F0401CC0F30B000428A1
:101B600001D204203DE0681E61684900B0FBF1F03D
:101B7000401CC0F30B0034E0A06838B9681E6168EF
:101B800001EB4101B0FBF1F0401C0AE0681E616806
:101B900001EBC10202EB0111B0FBF1F0401C40F47B
:101BA0008040C0F30B0008B901201AE0A06848B9D2
:101BB000681E616801EB4101B0FBF1F0401CC0F30D
:101BC0000B000CE0681E616801EBC10202EB011121
:101BD000B0FBF1F0401CC0F30B0040F4804040F437
:101BE00000402168C9694CF6FF729143084321689F
:101BF000C861D4E9070108432168096821F0C001E0
:101C0000084321680860D4E9031008432168896803
:101C100048F2FF329143084321688860D4E9050106
:101C200008432168C96821F0FF0108432168C860A2
:101C30002068006840F001002168086000202064EE
:101C4000202084F83D000020206384F83E0000BF7F
:101C500024E70000A086010080841E0000093D00EA
:101C600040420F0010B586B00446142101A8FEF7CB
:101C700092FB2A49206888424DD100BF0020009085
:101C80002748006840F004002549086008460068BD
:101C900000F00400009000BF00BF00BF00200090D3
:101CA0000846006840F0010008600846006800F03F
:101CB0000100009000BF00BF481501901220029063
:101CC00000200390032004900420059001A91548EA
:101CD000FFF7DAFD4FF4807001901220029000208F
:101CE0000390032004900420059001A90E48FFF7FB
:101CF000CBFD00BF0020009009481030006840F480
:101D000000000749103108600846006800F4000030
:101D1000009000BF00BF06B010BD0000005C004096
:101D200030380240000802400000024003480068CA
:101D3000034909780844014908607047A40100205C
:101D4000AC01002010B50D48006840F400700B494C
:101D500008600846006840F4806008600846006833
:101D600040F480700860032000F0A2F80F2000F01B
:101D700007F800F02BF8002010BD0000003C0240E6
:101D800070B504460E4800784FF47A71B1FBF0F05C
:101D90000C490968B1FBF0F5284600F03BFD08B19D
:101DA000012070BD102C07D200222146501E00F0E9
:101DB00041F80548046001E00120F2E70020F0E767
:101DC000AC010020B0010020A801002008B500BF30
:101DD000002000900E48006840F480400C490860E4
:101DE0000846006800F48040009000BF00BF00BFBC
:101DF00000200090081F006840F08050091F086014
:101E00000846006800F08050009000BF00BF08BD89
:101E10004438024001460846002809DB00F01F0351
:101E200001229A4043099B0003F1E023C3F80021FB
:101E300000BF70472DE9F05F80460D46164600272B
:101E400002F0BCF8074639462A46334601F007003F
:101E5000C0F1070ABAF1040F02D94FF0040A01E0F9
:101E6000C0F1070AD14600F1040ABAF1070F02D205
:101E70004FF0000A01E0A0F1030AD4464FF0010A36
:101E80000AFA09FAAAF1010A0AEA020A0AFA0CFA9B
:101E90004FF0010B0BFA0CFBABF1010B0BEA030B40
:101EA0004AEA0B042146404602F090F8BDE8F09F54
:101EB00000BF00F00702064B19684FF6FF031940F8
:101EC000044B0B4343EA0221014B196000BF7047EA
:101ED0000CED00E00000FA0570B504460D460CB9A3
:101EE000012070BD5848006800F00700A84209D2E0
:101EF00055490D700846006800F00700A84201D05F
:101F00000120EEE7207800F0020002281DD12078A1
:101F100000F00400042805D14C48006840F4E0506B
:101F20004A490860207800F00800082805D1474891
:101F3000006840F46040454908604448006820F06B
:101F4000F000A168084341490860207800F00100D2
:101F5000A8B36068012807D13C4808380068C0F37E
:101F60004040B8B90120BCE76068022802D0606830
:101F7000032807D1354808380068C0F3406048B9E5
:101F80000120AEE7314808380068C0F3400008B9C6
:101F90000120A6E72D48006820F00300616808438F
:101FA0002A490860FFF770FD064609E0FFF76CFD5F
:101FB000801B41F28831884202D9032091E707E073
:101FC0002248006800F00C006168B0EB810FEDD191
:101FD0001D48006800F00700A84209D91A490D7091
:101FE0000846006800F00700A84201D0012078E709
:101FF000207800F00400042807D11448006820F479
:10200000E050E168084311490860207800F00800BA
:10201000082808D10D48006820F46040216940EA92
:10202000C1000A49086000F03FF808490968C1F397
:102030000311074A515CC840064908600648006819
:10204000FFF79EFE00204CE7003C024008380240AB
:102050008A430008B0010020A80100200148006860
:1020600070470000B001002000B5FFF7F7FF0449FA
:102070000968C1F38221034A515CC84000BD0000D9
:10208000083802409A43000800B5FFF7E7FF04490B
:102090000968C1F34231034A515CC84000BD0000E9
:1020A000083802409A4300082DE9F0470024002533
:1020B0000026A1462548006800F00C0020B1042845
:1020C00005D008283AD105E0DFF8849039E0DFF840
:1020D000849036E01D48001F006800F03F041B4854
:1020E000001F006800F4800078B11A481749091FE2
:1020F0000968C1F38811A0FB017001462246002344
:102100003846FEF7D1F805460EE011480F49091F81
:102110000968C1F38811A0FB017001462246002323
:102120003846FEF7C1F805460848001F0068C0F3AE
:102130000140401C4600B5FBF6F902E0DFF81090C4
:1021400000BF00BF4846BDE8F087000008380240E5
:102150000024F400001BB700F8B504460CB90120B8
:10216000F8BD207800F00100002874D0F94800681C
:1021700000F00C0004280DD0F648006800F00C00B8
:10218000082813D1F348001F006800F48000B0F560
:10219000800F0BD1EF4808380068C0F3404000289A
:1021A00059D06068002856D10120D9E700BF606887
:1021B000B0F5803F08D1E7480838006840F4803027
:1021C000E449083908601EE06068B0F5A02F0DD121
:1021D000E0480838006840F48020DE49083908608B
:1021E0000846006840F4803008600CE0D9480838A0
:1021F000006820F48030D749083908600846006834
:1022000020F48020086000BF606890B1FFF73CFCBC
:10221000054606E0FFF738FC401B642801D903207F
:102220009EE7CC4808380068C0F340400028F1D051
:1022300011E0FFF729FC054606E0FFF725FC401BEF
:10224000642801D903208BE7C24808380068C0F32E
:1022500040400028F1D1207800F0020002285FD130
:10226000BC48006800F00C0058B1BA48006800F0A3
:102270000C0008281CD1B748001F006800F480003B
:10228000B0B9B44808380068C0F3400020B1E06835
:10229000012801D0012063E7AE480838006820F02B
:1022A000F800216940EAC100AA490839086037E00E
:1022B000E06800B30120A8490860FFF7E5FB054688
:1022C00006E0FFF7E1FB401B022801D9032047E7A6
:1022D000A04808380068C0F340000028F1D09D48AD
:1022E0000838006820F0F800216940EAC1009949E7
:1022F0000839086014E0002097490860FFF7C4FB24
:10230000054606E0FFF7C0FB401B022801D9032069
:1023100026E7904808380068C0F340000028F1D153
:10232000207800F0080008282CD16069A8B10120AD
:102330008A490860FFF7A8FB054606E0FFF7A4FB03
:10234000401B022801D903200AE782486C3000684C
:10235000C0F340000028F1D014E000207F4908605D
:10236000FFF792FB054606E0FFF78EFB401B0228B5
:1023700001D90320F4E677486C300068C0F34000D0
:102380000028F1D1207800F00400042870D1002743
:1023900070483830006800F0805090B900BF0020CD
:1023A00000906C483830006840F0805069493831FE
:1023B00008600846006800F08050009000BF00BF31
:1023C00001276748006800F48070B0B9644800686D
:1023D00040F4807062490860FFF756FB054606E04E
:1023E000FFF752FB401B022801D90320B8E65C48E6
:1023F000006800F480700028F2D000BFA0680128B7
:1024000008D154486830006840F0010051496831F3
:1024100008601DE0A06805280DD14E4868300068AE
:1024200040F004004B49683108600846006840F0FD
:10243000010008600CE047486830006820F00100A7
:102440004449683108600846006820F004000860CC
:1024500000BFA068A8B1FFF717FB054609E0FFF72A
:1024600013FB401B41F28831884202D9032077E6F2
:1024700026E0384868300068C0F340000028EED0FD
:1024800013E0FFF701FB054608E0FFF7FDFA401BEC
:1024900041F28831884201D9032061E62D48683035
:1024A0000068C0F340000028EFD1012F07D1294870
:1024B0003830006820F0805026493831086000BF6D
:1024C000A069002845D02348006800F00C000828C7
:1024D0005DD0A069022845D100201F490866FFF79A
:1024E000D3FA054606E0FFF7CFFA401B022801D9D0
:1024F000032035E6174808380068C0F3406000281C
:10250000F1D1D4E907010843616A40EA811101224F
:10251000A06AC2EB500041EA00412C20005D41EA74
:1025200000600C49091F086001200B490866FFF78D
:10253000ABFA054606E0FFF7A7FA401B022801D9CF
:1025400003200DE6034808380068C0F34060002807
:10255000F1D049E00838024000004742800E47426F
:1025600000700040002021490866FFF78DFA0546FB
:1025700006E0FFF789FA401B022801D90320EFE5A6
:102580001B480068C0F340600028F2D12CE0A0692D
:10259000012800D1E4E51648001D0668A06901285D
:1025A00020D006F48001E06981421BD106F03F0192
:1025B000206A814216D147F6C0703040616AB0EBA4
:1025C000811F0FD106F440310122A06AC2EB5000F6
:1025D000B1EB004F06D106F070612C20005DB1EB2D
:1025E000006F01D00120BBE50020B9E500004742A3
:1025F0000038024010B504460CB9012010BD606AD5
:1026000038B96068B0F5827F00D105E00021E16152
:1026100002E00021216161610021A16294F8510072
:1026200028B9002084F85000204600F047F8022026
:1026300084F851002068006820F04000216808609C
:10264000A08800F48270218901F404410843A18923
:1026500001F400610843217C01F002010843217D5F
:1026600001F001010843218B01F400710843217F2F
:1026700001F0380108432021095D01F08001084381
:10268000218D01F400510843216808600421A069EC
:1026900001EA104094F8241001F010010843216869
:1026A00048602068C06920F400602168C86100208B
:1026B0006065012084F8510000209FE710B586B0C6
:1026C0000446142101A8FDF766FE4B4920688842A4
:1026D0007ED100BF002000904848006840F4805040
:1026E000464908600846006800F48050009000BF2A
:1026F00000BF00BF0020009040481438006840F040
:1027000002003E49143908600846006800F00200E3
:10271000009000BF00BF00BF002000900846006886
:1027200040F0010008600846006800F001000090D9
:1027300000BF00BF182001900220029000200390EB
:10274000032004900520059001A92D48FFF79CF86F
:10275000802001900220029000200390032004902A
:102760000520059001A92748FFF78EF8264827493C
:1027700008604FF0C0604860002124488160C1605B
:102780004FF480610161002141618161C1614FF4B9
:102790004031016200214162FEF7DCFF08B1FDF724
:1027A000EBFF00BF1948E064846300BF164818308F
:1027B000174908604FF0C0604860402114488160AC
:1027C0000021C1604FF4806101610021416100E09E
:1027D00010E08161C1614FF400310162002141626A
:1027E000FEF7B8FF08B1FDF7C7FF00BF0848A064B7
:1027F000846300BF06B010BD003001404438024081
:10280000000402400000024040640240B404002082
:102810001405002070B504462546681EB0F1807F7F
:1028200001D301200FE0681E4FF0E02148610F2125
:102830004FF0FF3001F0CAFB00204FF0E02188612B
:1028400007200861002070BD10B504460CB90120B6
:1028500010BD94F83D0028B9002084F83C002046C3
:1028600000F026F8022084F83D00211D206800F0C9
:10287000AFFF012084F8460000BF84F83E0001212C
:102880003F200155402001554120015500BF00BFA8
:10289000012084F842004320015544200155452081
:1028A000015500BF012084F83D000020D0E7000062
:1028B00008B50A4A016891420FD100BF002100917A
:1028C0000749096841F40031054A11601146096859
:1028D00001F40031009100BF00BF08BD0044014079
:1028E0004438024010B586B00446142101A8FDF713
:1028F00052FD1249206888421DD100BF002000907F
:102900000F48006840F020000D4908600846006844
:1029100000F02000009000BF00BF40200190022086
:10292000029001200390022004900320059001A949
:102930000448FEF7A9FF06B010BD000000440140A6
:1029400030380240001402402DE9F04104460D46A3
:102950001646002700BF94F83C00012802D102204F
:10296000BDE8F081012084F83C0000BF36B1042EA0
:102970001BD0082E31D00C2E5ED145E029462068B0
:1029800000F092FF2068806940F0080021688861AB
:102990002068806920F004002168886120688069CF
:1029A000296908432168886148E02946206800F0C9
:1029B000B3FF2068806940F4006021688861206866
:1029C000806920F4806021688861206880692969B5
:1029D00040EA01202168886130E02946206800F043
:1029E000D9FF2068C06940F008002168C8612068EC
:1029F000C06920F004002168C8612068C0692969A5
:102A000008432168C86119E02946206800F0FEFFEC
:102A10002068C06940F400602168C8612068C0690E
:102A200020F480602168C8612068C069296940EA93
:102A300001202168C86101E0012700BF00BF00BF7D
:102A4000002084F83C0000BF384689E710B50446F2
:102A50000CB9012010BD94F83D0028B9002084F87D
:102A60003C00204600F025F8022084F83D00211D9E
:102A7000206800F0ADFE012084F8460000BF84F815
:102A80003E0001213F2001554020015541200155C4
:102A900000BF00BF012084F84200432001554420BC
:102AA00001554520015500BF012084F83D0000205C
:102AB000D0E77047704770472DE9F84F044620680B
:102AC00005682068C668206847694FF00009CA4653
:102AD00005F00F09B9F1000F0AD105F0200038B157
:102AE00006F0200020B1204601F00AF8BDE8F88F7A
:102AF000B9F1000F7CD007F0010018B906F490700E
:102B0000002875D005F0010030B106F4807018B1CE
:102B1000206C40F00100206405F0040030B107F0A3
:102B2000010018B1206C40F00200206405F00200A2
:102B300030B107F0010018B1206C40F004002064AF
:102B400005F0080048B106F0200010B907F00100B8
:102B500018B1206C40F008002064206C002846D09A
:102B600005F0200028B106F0200010B1204600F04A
:102B7000C7FF20684069C0F3801A206C00F008008D
:102B800010B9BAF1000F2DD0204600F073FF206875
:102B9000406900F04000402820D100BF00BF2168FC
:102BA000143151E8001F21F040002168143141E840
:102BB0000002002AF3D100BFA06B50B17548A16B91
:102BC0000865A06BFEF791FC88B1A06B016D88478A
:102BD0000DE02046FFF76FFF09E009E02046FFF710
:102BE0006AFF04E02046FFF766FF002020647DE7CF
:102BF000206B012876D105F01000002872D006F075
:102C000010000028FAD000BF002000902068006863
:102C1000009020684068009000BF00BF20684069B5
:102C200000F0400040285ED1A06B006840681FFAA9
:102C300080F8B8F1000F54D0A08D404551DDA4F8C4
:102C40002E80A06BC069B0F5807F43D000BF00BF6D
:102C500021680C3151E8001F21F4807021680C318B
:102C600041E80002002AF3D100BF00BF00BF216885
:102C7000143151E8001F21F001002168143141E8AE
:102C80000002002AF3D100BF00BF00BF2168143149
:102C900051E8001F21F040002168143141E8000292
:102CA000002AF3D100BF202084F83E0000202063DA
:102CB00000BF00BF21680C3151E8001F21F0100057
:102CC00021680C3141E80002002AF3D100BFA06B5B
:102CD000FEF7B5FBA08DE28D801A81B22046FFF78A
:102CE000E9FE03E740E0A08DE18D401A1FFA80F86D
:102CF000E08DC0B3B8F1000F35D000BF00BF216830
:102D00000C3151E8001F21F4907021680C3141E82A
:102D10000002002AF3D100BF00BF00BF21681431B8
:102D200051E8001F21F001002168143141E8000240
:102D3000002AF3D100BF202084F83E000020206349
:102D400000BF00BF21680C3151E8001F21F01000C6
:102D500021680C3141E80002002AF3D100BF41464E
:102D60002046FFF7A7FEC1E605F0800030B106F06F
:102D7000800018B1204601F055F8B7E605F0400094
:102D800030B106F0400018B1204600F0A9FEADE6D3
:102D900000BFABE6613A000810B504460CB901204B
:102DA00010BDA06900B100E000BF94F83D0028B953
:102DB000002084F83C00204600F028F8242084F805
:102DC0003D002068C06820F400502168C86020469B
:102DD00000F012FF2068006920F49040216808612B
:102DE0002068406920F02A00216848612068C06896
:102DF00040F400502168C86000202064202084F83E
:102E00003D0084F83E000020CAE7000010B586B0FF
:102E10000446142101A8FDF7BEFA6F4920688842D4
:102E200078D100BF002000906C48006840F010008E
:102E30006A4908600846006800F01000009000BF72
:102E400000BF00BF0020009064481438006840F0C4
:102E500002006249143908600846006800F0020068
:102E6000009000BF00BF00BF00200090084600682F
:102E700040F0010008600846006800F00100009082
:102E800000BF00BF8020019002200290002003902C
:102E9000032004900720059001A95148FEF7F4FC97
:102EA0004FF4007001900220029000200390032054
:102EB00004900720059001A94A48FEF7E5FC4A481E
:102EC0004A4908604FF000604860402147488160EF
:102ED0000021C1604FF48061016100214161816185
:102EE000C1614FF44031016200214162FEF732FCC2
:102EF00008B1FDF741FC00BF3C486063846300BF3C
:102F0000002211462520FEF795FF2520FEF782FFBF
:102F10005FE0FFE73649206888425AD100BF0020B1
:102F200000902E48001F006840F480202B49091FA4
:102F300008600846006800F48020009000BF00BFD1
:102F400000BF0020009025481438006840F00400BD
:102F50002249143908600846006800F00400009017
:102F600000BF00BF4FF4406001900220029000209B
:102F70000390032004900720059001A91D48FEF747
:102F800083FC1D481D4908604FF000604860002127
:102F90001A488160C1604FF4806101610021416184
:102FA0008161C1614FF44031016200214162FEF74D
:102FB000D1FB08B1FDF7E0FB00BF1048A0638463BC
:102FC00000BF002211462720FEF734FF2720FEF71E
:102FD00021FF06B010BD000000100140443802403F
:102FE0000004024000000240B86402404406002091
:102FF000004800400008024028600240A40600206B
:103000007047704700BFFEE71FB500200090019099
:10301000029003901548164908604FF480304860CC
:103020000021134881600161017680F82010C1629F
:10303000104981620021C1600121C161002180F835
:10304000301001214161FDF761FC08B1FDF794FBEF
:103050001120009001200190002002906946044850
:10306000FDF78EFB08B1FDF787FB1FBD0020014077
:10307000280300200100000F1FB5002000900190E0
:10308000029003901548164908604FF4803048605C
:103090000021134881600161017680F82010C1622F
:1030A000104981620021C1600121C161002180F8C5
:1030B000301001214161FDF729FC08B1FDF75CFBEF
:1030C00008200090012001900020029069460448E9
:1030D000FDF756FB08B1FDF74FFB1FBD0022014075
:1030E000700300200100000F10B50E480E49086063
:1030F0000320486000210C488160C1604FF410211A
:1031000001614FF400114161002101764176817621
:10311000C17601774177FDF7BAFF08B1FDF72CFBC7
:1031200010BD000000640040B803002010B50E4838
:103130000E4908600320486000210C488160C1608E
:103140004FF4102101614FF400114161002101761B
:1031500041768176C17601774177FDF798FF08B116
:10316000FDF70AFB10BD000000680040E0030020EE
:1031700008B500BF002000901E48006840F48000A1
:103180001C4908600846006800F48000009000BFF9
:1031900000BF00BF002000900846006840F4001007
:1031A00008600846006800F40010009000BF00BFEF
:1031B000002211460C20FEF73DFE0C20FEF72AFEF1
:1031C000002211463A20FEF735FE3A20FEF722FE95
:1031D000002211463B20FEF72DFE3B20FEF71AFE93
:1031E000002211464620FEF725FE4620FEF712FE7D
:1031F00008BD00003038024000B587B0142102A895
:10320000FDF7C9F800BF002001905248006840F067
:103210000200504908600846006800F00200019072
:1032200000BF00BF00BF002001900846006840F0CA
:10323000010008600846006800F00100019000BF2E
:1032400000BF00BF002001900846006840F0080061
:1032500008600846006800F00800019000BF00BF49
:1032600000BF002001900846006840F0040008609C
:103270000846006800F00400019000BF00BF00BFD6
:10328000002001900846006840F080000860084671
:10329000006800F08000019000BF00BF00BF002068
:1032A00001900846006840F0200008600846006869
:1032B00000F02000019000BF00BF00224FF4E05159
:1032C0002548FEF7DBFB012210212448FEF7D6FB40
:1032D000012211462248FEF7D1FB4FF4E050029044
:1032E000012003900490059002A91B48FEF7CCFA38
:1032F000102002900120039004900220059002A962
:103300001648FEF7C1FA302002904FF404100390E3
:103310000120049002A91348FEF7B6FA012002909A
:10332000039004900220059002A90D48FEF7ACFA24
:10333000002211460A20FEF77DFD0A20FEF76AFDF5
:10334000002211461720FEF775FD1720FEF762FDDB
:1033500007B000BD30380240001C024000000240AF
:10336000000402400008024010B50B480B490860F9
:103370000B484860002109488160C1604FF48041DA
:103380000161002141618161C1610162FEF782FB3F
:1033900008B1FDF7F1F910BD005C00400804002001
:1033A000801A060010B50F480F4908604FF482706C
:1033B000486000210C488160C16002210161012147
:1033C0004161490281613821C1610021016241628C
:1033D00081620A21C162FFF70DF908B1FDF7CCF94E
:1033E00010BD0000003001405C04002000B587B033
:1033F0001C216846FCF7CFFF1548164908600020DD
:10340000486000211348816041F28731C16000218A
:1034100001618161FFF718FA08B1FDF7ADF90D48B8
:10342000FFF714FB08B1FDF7A7F96020009000201A
:10343000019002900490002269460648FFF784FA42
:1034400008B1FDF799F90348FFF74CFA07B000BD42
:10345000004401407405002010B50B480B4908607A
:103460004FF4E1304860002108488160C16001618B
:103470000C21416100218161C161FFF78DFC08B120
:10348000FDF77AF910BD000000100140BC050020D6
:1034900010B50A480A4908600A48486000210848EF
:1034A0008160C16001610C21416100218161C161C4
:1034B000FFF772FC08B1FDF75FF910BD004800404E
:1034C00000060020A086010000BFFEE700BFFEE767
:1034D000B0EE401A10B99FED4F0A7047C16B0164FE
:1034E000816BC16310EE901A416111EE101A816177
:1034F00030EEC10A10EE101A8163016800EE101A56
:10350000816B01EE901A20EE210A10EE101A016272
:10351000416A00EE101A416801EE901A816B02EECA
:10352000101A01EE820A10EE101A4162016B41631B
:10353000C16A0163816B00EE101AC16B01EE901A33
:1035400030EE610A10EE101AC162816800EE101AA6
:10355000C16A01EE901A20EE210A10EE101A816263
:10356000416A00EE101A016901EE901AB4EEE10A08
:10357000F1EE10FA02DD0169416214E0416A00EEE9
:10358000101A016901EE901AF1EE611AB4EEE10A27
:10359000F1EE10FA07D2016900EE101AB1EE400AFE
:1035A00010EE101A4162016A00EE101A416A01EE33
:1035B000901A70EE211A816A00EE101A31EE800A1C
:1035C00010EE101AC161C16900EE101AC16801EE57
:1035D000901AB4EEE10AF1EE10FA02DDC168C161A1
:1035E00014E0C16900EE101AC16801EE901AF1EE04
:1035F000611AB4EEE10AF1EE10FA07D2C16800EEEA
:10360000101AB1EE400A10EE101AC161C16900EE45
:10361000101A62E7000000000A6802604A6842600F
:103620008A68826010EE102AC26010EE902A026151
:103630009FED091A11EE102A42630263C2629FEDE8
:10364000061A11EE102AC2618262426202620264AC
:10365000C2638263704700000000000070470000F2
:1036600010B5234B1B685B6943F04003204C246872
:1036700063611F4B1B68DB6843F010031C4C24681C
:10368000E3601C4B1B681B6823F00103194C246882
:10369000236007E0174B1B681B6823F00103154CE0
:1036A00024682360134B1B681B6803F00103002B85
:1036B000F0D1114B0F4C2468A3600E4B1B68D860EF
:1036C0000C4B1B6819610B4B1B685A60094B1B683C
:1036D0001B6843F48023074C24682360054B1B6858
:1036E0001B6843F00103034C2468236010BD0000F5
:1036F00000060020A406002004480040704710B5D2
:10370000FEF714FB10BD000000B593B0302107A8F0
:10371000FCF741FE142102A8FCF73DFE00BF00208B
:1037200001902448006840F0805022490860084613
:10373000006800F08050019000BF00BF00BF002073
:1037400001901D48006840F480401B49086008460D
:10375000006800F48040019000BF00BF0120079086
:103760000004089002200D9041050E9106210F9152
:10377000A8211091022111910421129107A8FEF7AE
:10378000EBFC08B1FCF7F8FF0F2002900220039039
:10379000002004904FF4A05005904FF48050069004
:1037A000052102A8FEF798FB08B1FCF7E5FF13B06E
:1037B00000BD00004038024000700040034800682F
:1037C00040F47000014908607047000088ED00E097
:1037D00010B50268294B98420ED0B0F1804F0BD043
:1037E000274B984208D0274B984205D0264B984249
:1037F00002D0264B984203D122F070024B681A4344
:103800001E4B984220D0B0F1804F1DD01C4B9842E7
:103810001AD01C4B984217D01B4B984214D01B4B0C
:10382000984211D01A4B98420ED01A4B98420BD0A6
:10383000194B984208D0194B984205D0184B984222
:1038400002D0184B984203D122F44072CB681A433D
:1038500022F080034C6943EA040202608B68C36271
:103860000B688362054B984202D0084B984201D105
:103870000B6903630123436110BD00000000014098
:103880000004004000080040000C0040000401401B
:103890000040014000440140004801400018004041
:1038A000001C00400020004030B5056A25F00105ED
:1038B0000562026A4368846924F0700424F00304FA
:1038C0000D682C4322F002028D682A43104DA84255
:1038D00000D103E00F4DA84206D100BF22F008023C
:1038E000CD682A4322F00402094DA84202D0094DB6
:1038F000A84207D123F4807323F400734D692B434E
:103900008D692B43436084614D684563026230BD1D
:10391000000001400004014030B5056A25F01005A3
:103920000562026A4368846924F4E04424F4407424
:103930000D6844EA052422F020028D6842EA05124F
:10394000124DA84200D103E0114DA84207D100BF9B
:1039500022F08002CD6842EA051222F040020B4DAF
:10396000A84202D00A4DA84209D123F4806323F46F
:1039700000634D6943EA85038D6943EA850343602B
:1039800084614D688563026230BD00000000014023
:103990000004014030B5056A25F480750562026AAD
:1039A0004368C46924F0700424F003040D682C43B8
:1039B00022F400728D6842EA0522124DA84200D11D
:1039C00003E0114DA84207D100BF22F40062CD6888
:1039D00042EA052222F480620A4DA84202D00A4D32
:1039E000A84209D123F4805323F400534D6943EADC
:1039F00005138D6943EA05134360C4614D68C563CF
:103A0000026230BD000001400004014030B5056A8B
:103A100025F480550562036A4468C26922F4E042D5
:103A200022F440720D6842EA052223F400538D68A7
:103A300043EA0533084DA84202D0084DA84204D1FC
:103A400024F480444D6944EA85144460C2614D68A1
:103A50000564036230BD0000000001400004014025
:103A600070B50546AC6B0020E085E0842046FFF78A
:103A700022F870BD00BF00BF02680C3252E8002F70
:103A800022F4907102680C3242E80013002BF3D14B
:103A900000BF00BF00BF0268143252E8002F22F0BE
:103AA00001010268143242E80013002BF3D100BF79
:103AB000016B01290ED100BF00BF02680C3252E831
:103AC000002F22F0100102680C3242E80013002B94
:103AD000F3D100BF202180F83E1000210163704720
:103AE00010B504462068C06820F040002168C86016
:103AF000202084F83D002046FFF783FA002010BD07
:103B0000F8B5044694F83E00222873D1A068B0F5B9
:103B1000805F0CD1206950B90025A66A20684068F2
:103B2000C0F308003080A06A801CA06215E0A56A7E
:103B30000026A068B0F5805F03D0A06828B920698E
:103B400018B920684068287004E02068406800F0D8
:103B50007F002870A06A401CA062E08D401E80B2E9
:103B6000E085002844D12068C06820F0200021684A
:103B7000C8602068C06820F480702168C860206830
:103B8000406920F0010021684861202084F83E004F
:103B9000206B012826D10020206300BF00BF2168D0
:103BA0000C3151E8001F21F0100021680C3141E870
:103BB0000002002AF3D100BF2068006800F0100066
:103BC00010280AD100BF00200090206800680090F3
:103BD00020684068009000BF00BFA18D2046FEF71E
:103BE00069FF02E02046FFF70BFA0020F8BD01E074
:103BF0000020FBE70220F9E72DE9F84F0446206892
:103C0000006920F44050E168084321680861216997
:103C1000A068084361690843E1690843009020688F
:103C2000C06849F20C618843009908432168C86064
:103C30002068406920F44070A16908432168486108
:103C400076492068884203D075492068884203D1AC
:103C5000FEF71AFA814602E0FEF706FA8146E069AD
:103C6000B0F5004F6CD102206168A0FB0150034603
:103C70001920A9FB007001462A463846FCF714FBC0
:103C80006421B0FBF1F04FEA001A02206168A0FB4A
:103C900001510B461920A9FB00712A463846FCF752
:103CA00003FB834602206168A0FB015003461920F4
:103CB000A9FB00712A463846FCF7F6FA6421B0FBEE
:103CC000F1F000EBC00101EB0010ABEB8000322102
:103CD00001EBC0006421B0FBF1F000F0F8000AEB4A
:103CE000400A02206168A0FB015003461920A9FB8D
:103CF000007001462A463846FCF7D6FA8346022071
:103D00006168A0FB015003461920A9FB00712A46F7
:103D10003846FCF7C9FA6421B0FBF1F000EBC001B2
:103D200001EB0010ABEB8000322101EBC0006421FD
:103D3000B0FBF1F000F007005044216888606AE0B1
:103D400004206168A0FB015003461920A9FB007004
:103D500001462A463846FCF7A7FA824604206168E5
:103D6000A0FB015003461920A9FB007001462A461A
:103D70003846FCF799FA6421B0FBF1F000EBC00182
:103D800001EB0010AAEB8000322101EB001064214E
:103D9000B0FBF1F000F0F00A04206168A0FB0170B4
:103DA00003461920A9FB00513A462846FCF77CFA45
:103DB0006421B0FBF1F00AEB001A04206168A0FB5B
:103DC00001510B461920A9FB00712A463846FCF721
:103DD0006BFA834604206168A0FB0150034619205A
:103DE000A9FB007001462A463846FCF75DFA6421BB
:103DF000B0FBF1F000EBC00101EB0010ABEB800079
:103E0000322101EB00106421B0FBF1F000F00F0053
:103E1000504421688860BDE8F88F00000010014020
:103E200000140140014691F83D00212828D18868FE
:103E3000B0F5805F0BD1086948B90A6A1088C0F3F1
:103E400008000B685860086A801C086205E00B6A6D
:103E5000581C086218780B685860C88C401E80B2E5
:103E6000C88458B90868C06820F080000B68D86022
:103E70000868C06840F040000B68D86000207047B8
:103E80000220FCE710B50248FEF716FE10BD000048
:103E9000BC05002008B541480068006800F020001B
:103EA00060B100BF002000903C48006800680090AE
:103EB0003A4800684068009000BF6EE038480068EB
:103EC00000F01000002868D000BF002000903348A8
:103ED000006800680090314800684068009000BFAA
:103EE00000BF30480068006800F4002058BB2D482F
:103EF0000068006820F001002A4909680860294824
:103F000000684068C0F12400274908802420254922
:103F10000968486023480068006840F4002021498F
:103F2000096808601F480068006840F001001D49EA
:103F3000096808601C48008812282ED11B491C48BB
:103F400000F0A0F929E017480068006820F001009F
:103F5000144909680860134800684068C0F12400EB
:103F60001149088024200F49096848601148806A77
:103F700020F400200F4988620A480068006840F079
:103F8000010008490968086007480088122804D120
:103F900006490748243000F075F908BD00060020E6
:103FA00000480040A40600207A02002044070020B8
:103FB0005A0700200060024000BFFEE70248006888
:103FC000C0F30220704700000CED00E010B500289F
:103FD00004DB0A07130E054A135406E00A07140E01
:103FE000034A00F00F031B1FD45410BD00E400E08F
:103FF00018ED00E000B58BB001200990002007907B
:1040000001200890002001900290039004900690F7
:10401000059001A90C48FCF7C3FD0B48FDF7D9F941
:1040200002210948FCF7FCFC0E200A90069001A929
:104030000648FCF7B5FD0548FDF7CBF9022103481A
:10404000FCF7EEFC0BB000BDB8030020E00300203D
:1040500010B51369834200D010BD93881BB29381C1
:104060004B7F0C7F43EA04239380CC7F8B7F44EA11
:1040700003231BB2D38021235C5C20235B5C44EAD6
:1040800003231BB2138122235B5C937200BFE3E71F
:104090000048704744070020B2EE0A0A554880EDF8
:1040A000000AB6EE000A80ED010A9FED530A80ED8A
:1040B000020A9FED520A10EE100A514908619FED65
:1040C000510A10EE100AC8609FED4F0A4F4880ED6C
:1040D000000A9FED4F0A80ED010A9FED470A80ED2F
:1040E000020A9FED460A10EE100A4A4908619FED48
:1040F0004A0A10EE100AC860FDF724FEFFF704FB21
:10410000FFF77AF8FFF734F8FEF7EEFFFFF70EF847
:10411000FFF7A2F9FFF7BCF9FEF776FFFEF7ACFF59
:10412000FFF722F9FFF73EF9FFF760F9FFF762FFAB
:104130003348006900EE900A3148C06800EE100A6A
:104140002C492F48FFF768FA3248006900EE900AC0
:104150003048C06800EE100A2C492E48FFF75CFA80
:1041600000F086F800F0FCF8FFF792FF2B4908609A
:104170003FE02B49B1F890004FF4805100F05CF81B
:10418000284880ED000A284890ED000A2548D0ED27
:10419000000A30EE600A254880ED000AD0ED000AE2
:1041A0009FED150A1B48FFF793F9214880ED000A9F
:1041B0001B48B0F9920000EE900AF8EEE00AB0EE6B
:1041C000600A1B48D0ED000A0D48FFF781F9194835
:1041D00080ED000A00231A4690ED000ABDEEC00AE9
:1041E00010EE100A01B21846FCF7FCF90220FDF7A8
:1041F00027FBBEE77C0200200000000000401C45B9
:10420000A002002000007A460000704288020020D0
:10421000CDCC4C3DE40200200060EA4600000020C6
:10422000B4010020100000201C0000200400002029
:10423000140000201800002002460020501AB0F59B
:10424000805F03DDA0F5F850FF3805E010F5805FD2
:1042500002DA41F6FF73184400EE100AB8EEC00A05
:10426000DFED020A20EE200A70470000A105343D70
:1042700000B524220249A1F12400FFF7F1F900BDA5
:104280007E07002000B101B970470278437842EA06
:104290000322C2F30A020A804278D210837842EAEB
:1042A0004312C2F30A024A8082789211C37842EA2A
:1042B0008302037942EA8322C2F30A028A800279E6
:1042C0005210437942EAC312C2F30A02CA80427909
:1042D000C2F301128A72427912119308CB72827969
:1042E000C37942EA032212B28A81027A437A42EA0D
:1042F000032213B201F10C02CB81827AC37A42EA23
:10430000032213B201F10C020B82037B8B74437BFB
:10431000CB74827BC37B42EA03228A82027C437C89
:1043200042EA032212B20A810A88A2F5806212B21E
:104330000A804A88A2F5806212B24A808A88A2F571
:10434000806212B28A80CA88A2F5806212B2CA80E4
:104350000A89A2F5806212B20A8100BF94E70000C8
:1043600004480068406940F08000024909684861DB
:1043700070470000BC0500204FF04070E1EE100ACD
:10438000704700061016000610160000000000001E
:1043900000000102030406070809000000000102F2
:1043A00003040000C4430008000000207C02000059
:1043B000C4010008144400087C0200208C0B00009B
:1043C00020020008910514803B4507E20202CF0855
:1043D0000B5CFF01E00B44020360321039AB132485
:1043E000F4E3010213B8032320202A20200A160236
:1043F0001C191D0A16031C19180A16041C19C00AD8
:1044000011061C198D391CDA051C5AE01C110222F8
:0444100005000000A3
:040000050800018965
:00000001FF
